{
  "transactions": [
    {
      "hash": "0x064ef25e802aef292e4925925ad83969b4a75be4d1c46b0dd89e7f8e700cf494",
      "transactionType": "CREATE",
      "contractName": "TestToken",
      "contractAddress": "0x04a7879b5bdc08fd0cf232dcf0ccb1db7ae86abf",
      "function": null,
      "arguments": [
        "Order Hookah",
        "Hookah"
      ],
      "transaction": {
        "from": "0x17156c0cf9701b09114cb3619d9f3fd937caa3a8",
        "gas": "0xdcc4c",
        "value": "0x0",
        "input": "0x608060405234801561000f575f80fd5b50604051610d89380380610d8983398101604081905261002e9161027d565b8181600361003c8382610366565b5060046100498282610366565b5050600580546001600160a01b0319163390811790915561007691506a084595161401484a00000061007d565b5050610445565b6001600160a01b0382166100ab5760405163ec442f0560e01b81525f60048201526024015b60405180910390fd5b6100b65f83836100ba565b5050565b6001600160a01b0383166100e4578060025f8282546100d99190610420565b909155506101549050565b6001600160a01b0383165f90815260208190526040902054818110156101365760405163391434e360e21b81526001600160a01b038516600482015260248101829052604481018390526064016100a2565b6001600160a01b0384165f9081526020819052604090209082900390555b6001600160a01b0382166101705760028054829003905561018e565b6001600160a01b0382165f9081526020819052604090208054820190555b816001600160a01b0316836001600160a01b03167fddf252ad1be2c89b69c2b068fc378daa952ba7f163c4a11628f55a4df523b3ef836040516101d391815260200190565b60405180910390a3505050565b634e487b7160e01b5f52604160045260245ffd5b5f82601f830112610203575f80fd5b81516001600160401b0381111561021c5761021c6101e0565b604051601f8201601f19908116603f011681016001600160401b038111828210171561024a5761024a6101e0565b604052818152838201602001851015610261575f80fd5b8160208501602083015e5f918101602001919091529392505050565b5f806040838503121561028e575f80fd5b82516001600160401b038111156102a3575f80fd5b6102af858286016101f4565b602085015190935090506001600160401b038111156102cc575f80fd5b6102d8858286016101f4565b9150509250929050565b600181811c908216806102f657607f821691505b60208210810361031457634e487b7160e01b5f52602260045260245ffd5b50919050565b601f82111561036157805f5260205f20601f840160051c8101602085101561033f5750805b601f840160051c820191505b8181101561035e575f815560010161034b565b50505b505050565b81516001600160401b0381111561037f5761037f6101e0565b6103938161038d84546102e2565b8461031a565b6020601f8211600181146103c5575f83156103ae5750848201515b5f19600385901b1c1916600184901b17845561035e565b5f84815260208120601f198516915b828110156103f457878501518255602094850194600190920191016103d4565b508482101561041157868401515f19600387901b60f8161c191681555b50505050600190811b01905550565b8082018082111561043f57634e487b7160e01b5f52601160045260245ffd5b92915050565b610937806104525f395ff3fe608060405234801561000f575f80fd5b50600436106100cf575f3560e01c806370a082311161007d578063a9059cbb11610058578063a9059cbb146101b8578063dd62ed3e146101cb578063f2fde38b14610203575f80fd5b806370a082311461015d5780638da5cb5b1461018557806395d89b41146101b0575f80fd5b806323b872dd116100ad57806323b872dd14610126578063313ce5671461013957806340c10f1914610148575f80fd5b806306fdde03146100d3578063095ea7b3146100f157806318160ddd14610114575b5f80fd5b6100db610216565b6040516100e891906107a7565b60405180910390f35b6101046100ff3660046107f7565b6102a6565b60405190151581526020016100e8565b6002545b6040519081526020016100e8565b61010461013436600461081f565b6102bf565b604051601281526020016100e8565b61015b6101563660046107f7565b6102e2565b005b61011861016b366004610859565b6001600160a01b03165f9081526020819052604090205490565b600554610198906001600160a01b031681565b6040516001600160a01b0390911681526020016100e8565b6100db61035a565b6101046101c63660046107f7565b610369565b6101186101d9366004610879565b6001600160a01b039182165f90815260016020908152604080832093909416825291909152205490565b61015b610211366004610859565b610376565b606060038054610225906108aa565b80601f0160208091040260200160405190810160405280929190818152602001828054610251906108aa565b801561029c5780601f106102735761010080835404028352916020019161029c565b820191905f5260205f20905b81548152906001019060200180831161027f57829003601f168201915b5050505050905090565b5f336102b3818585610491565b60019150505b92915050565b5f336102cc8582856104a3565b6102d785858561051e565b506001949350505050565b6005546001600160a01b0316331461034c5760405162461bcd60e51b815260206004820152602260248201527f54657374546f6b656e3a2063616c6c6572206973206e6f7420746865206f776e60448201526132b960f11b60648201526084015b60405180910390fd5b610356828261057b565b5050565b606060048054610225906108aa565b5f336102b381858561051e565b6005546001600160a01b031633146103db5760405162461bcd60e51b815260206004820152602260248201527f54657374546f6b656e3a2063616c6c6572206973206e6f7420746865206f776e60448201526132b960f11b6064820152608401610343565b6001600160a01b0381166104575760405162461bcd60e51b815260206004820152602860248201527f54657374546f6b656e3a206e6577206f776e657220697320746865207a65726f60448201527f20616464726573730000000000000000000000000000000000000000000000006064820152608401610343565b600580547fffffffffffffffffffffffff0000000000000000000000000000000000000000166001600160a01b0392909216919091179055565b61049e83838360016105af565b505050565b6001600160a01b038381165f908152600160209081526040808320938616835292905220545f198114610518578181101561050a57604051637dc7a0d960e11b81526001600160a01b03841660048201526024810182905260448101839052606401610343565b61051884848484035f6105af565b50505050565b6001600160a01b03831661054757604051634b637e8f60e11b81525f6004820152602401610343565b6001600160a01b0382166105705760405163ec442f0560e01b81525f6004820152602401610343565b61049e838383610681565b6001600160a01b0382166105a45760405163ec442f0560e01b81525f6004820152602401610343565b6103565f8383610681565b6001600160a01b0384166105d85760405163e602df0560e01b81525f6004820152602401610343565b6001600160a01b03831661060157604051634a1406b160e11b81525f6004820152602401610343565b6001600160a01b038085165f908152600160209081526040808320938716835292905220829055801561051857826001600160a01b0316846001600160a01b03167f8c5be1e5ebec7d5bd14f71427d1e84f3dd0314c0f7b2291e5b200ac8c7c3b9258460405161067391815260200190565b60405180910390a350505050565b6001600160a01b0383166106ab578060025f8282546106a091906108e2565b9091555061071b9050565b6001600160a01b0383165f90815260208190526040902054818110156106fd5760405163391434e360e21b81526001600160a01b03851660048201526024810182905260448101839052606401610343565b6001600160a01b0384165f9081526020819052604090209082900390555b6001600160a01b03821661073757600280548290039055610755565b6001600160a01b0382165f9081526020819052604090208054820190555b816001600160a01b0316836001600160a01b03167fddf252ad1be2c89b69c2b068fc378daa952ba7f163c4a11628f55a4df523b3ef8360405161079a91815260200190565b60405180910390a3505050565b602081525f82518060208401528060208501604085015e5f604082850101526040601f19601f83011684010191505092915050565b80356001600160a01b03811681146107f2575f80fd5b919050565b5f8060408385031215610808575f80fd5b610811836107dc565b946020939093013593505050565b5f805f60608486031215610831575f80fd5b61083a846107dc565b9250610848602085016107dc565b929592945050506040919091013590565b5f60208284031215610869575f80fd5b610872826107dc565b9392505050565b5f806040838503121561088a575f80fd5b610893836107dc565b91506108a1602084016107dc565b90509250929050565b600181811c908216806108be57607f821691505b6020821081036108dc57634e487b7160e01b5f52602260045260245ffd5b50919050565b808201808211156102b957634e487b7160e01b5f52601160045260245ffdfea2646970667358221220dc911ddde737ffe14622ca11199edb28aba3033ff15933e834991767fb5de93b64736f6c634300081a003300000000000000000000000000000000000000000000000000000000000000400000000000000000000000000000000000000000000000000000000000000080000000000000000000000000000000000000000000000000000000000000000c4f7264657220486f6f6b616800000000000000000000000000000000000000000000000000000000000000000000000000000000000000000000000000000006486f6f6b61680000000000000000000000000000000000000000000000000000",
        "nonce": "0x1b",
        "chainId": "0x14a34"
      },
      "additionalContracts": [],
      "isFixedGasLimit": false
    },
    {
      "hash": "0xa931faef9280734f4f9c5483326e48a1b1a81903de2311dc72185d56769a1088",
      "transactionType": "CREATE",
      "contractName": "TestToken",
      "contractAddress": "0x8683b74a60f2c6eb8215eb88416b745e86ddbe2d",
      "function": null,
      "arguments": [
        "USDC",
        "USDC"
      ],
      "transaction": {
        "from": "0x17156c0cf9701b09114cb3619d9f3fd937caa3a8",
        "gas": "0xdcbb0",
        "value": "0x0",
        "input": "0x608060405234801561000f575f80fd5b50604051610d89380380610d8983398101604081905261002e9161027d565b8181600361003c8382610366565b5060046100498282610366565b5050600580546001600160a01b0319163390811790915561007691506a084595161401484a00000061007d565b5050610445565b6001600160a01b0382166100ab5760405163ec442f0560e01b81525f60048201526024015b60405180910390fd5b6100b65f83836100ba565b5050565b6001600160a01b0383166100e4578060025f8282546100d99190610420565b909155506101549050565b6001600160a01b0383165f90815260208190526040902054818110156101365760405163391434e360e21b81526001600160a01b038516600482015260248101829052604481018390526064016100a2565b6001600160a01b0384165f9081526020819052604090209082900390555b6001600160a01b0382166101705760028054829003905561018e565b6001600160a01b0382165f9081526020819052604090208054820190555b816001600160a01b0316836001600160a01b03167fddf252ad1be2c89b69c2b068fc378daa952ba7f163c4a11628f55a4df523b3ef836040516101d391815260200190565b60405180910390a3505050565b634e487b7160e01b5f52604160045260245ffd5b5f82601f830112610203575f80fd5b81516001600160401b0381111561021c5761021c6101e0565b604051601f8201601f19908116603f011681016001600160401b038111828210171561024a5761024a6101e0565b604052818152838201602001851015610261575f80fd5b8160208501602083015e5f918101602001919091529392505050565b5f806040838503121561028e575f80fd5b82516001600160401b038111156102a3575f80fd5b6102af858286016101f4565b602085015190935090506001600160401b038111156102cc575f80fd5b6102d8858286016101f4565b9150509250929050565b600181811c908216806102f657607f821691505b60208210810361031457634e487b7160e01b5f52602260045260245ffd5b50919050565b601f82111561036157805f5260205f20601f840160051c8101602085101561033f5750805b601f840160051c820191505b8181101561035e575f815560010161034b565b50505b505050565b81516001600160401b0381111561037f5761037f6101e0565b6103938161038d84546102e2565b8461031a565b6020601f8211600181146103c5575f83156103ae5750848201515b5f19600385901b1c1916600184901b17845561035e565b5f84815260208120601f198516915b828110156103f457878501518255602094850194600190920191016103d4565b508482101561041157868401515f19600387901b60f8161c191681555b50505050600190811b01905550565b8082018082111561043f57634e487b7160e01b5f52601160045260245ffd5b92915050565b610937806104525f395ff3fe608060405234801561000f575f80fd5b50600436106100cf575f3560e01c806370a082311161007d578063a9059cbb11610058578063a9059cbb146101b8578063dd62ed3e146101cb578063f2fde38b14610203575f80fd5b806370a082311461015d5780638da5cb5b1461018557806395d89b41146101b0575f80fd5b806323b872dd116100ad57806323b872dd14610126578063313ce5671461013957806340c10f1914610148575f80fd5b806306fdde03146100d3578063095ea7b3146100f157806318160ddd14610114575b5f80fd5b6100db610216565b6040516100e891906107a7565b60405180910390f35b6101046100ff3660046107f7565b6102a6565b60405190151581526020016100e8565b6002545b6040519081526020016100e8565b61010461013436600461081f565b6102bf565b604051601281526020016100e8565b61015b6101563660046107f7565b6102e2565b005b61011861016b366004610859565b6001600160a01b03165f9081526020819052604090205490565b600554610198906001600160a01b031681565b6040516001600160a01b0390911681526020016100e8565b6100db61035a565b6101046101c63660046107f7565b610369565b6101186101d9366004610879565b6001600160a01b039182165f90815260016020908152604080832093909416825291909152205490565b61015b610211366004610859565b610376565b606060038054610225906108aa565b80601f0160208091040260200160405190810160405280929190818152602001828054610251906108aa565b801561029c5780601f106102735761010080835404028352916020019161029c565b820191905f5260205f20905b81548152906001019060200180831161027f57829003601f168201915b5050505050905090565b5f336102b3818585610491565b60019150505b92915050565b5f336102cc8582856104a3565b6102d785858561051e565b506001949350505050565b6005546001600160a01b0316331461034c5760405162461bcd60e51b815260206004820152602260248201527f54657374546f6b656e3a2063616c6c6572206973206e6f7420746865206f776e60448201526132b960f11b60648201526084015b60405180910390fd5b610356828261057b565b5050565b606060048054610225906108aa565b5f336102b381858561051e565b6005546001600160a01b031633146103db5760405162461bcd60e51b815260206004820152602260248201527f54657374546f6b656e3a2063616c6c6572206973206e6f7420746865206f776e60448201526132b960f11b6064820152608401610343565b6001600160a01b0381166104575760405162461bcd60e51b815260206004820152602860248201527f54657374546f6b656e3a206e6577206f776e657220697320746865207a65726f60448201527f20616464726573730000000000000000000000000000000000000000000000006064820152608401610343565b600580547fffffffffffffffffffffffff0000000000000000000000000000000000000000166001600160a01b0392909216919091179055565b61049e83838360016105af565b505050565b6001600160a01b038381165f908152600160209081526040808320938616835292905220545f198114610518578181101561050a57604051637dc7a0d960e11b81526001600160a01b03841660048201526024810182905260448101839052606401610343565b61051884848484035f6105af565b50505050565b6001600160a01b03831661054757604051634b637e8f60e11b81525f6004820152602401610343565b6001600160a01b0382166105705760405163ec442f0560e01b81525f6004820152602401610343565b61049e838383610681565b6001600160a01b0382166105a45760405163ec442f0560e01b81525f6004820152602401610343565b6103565f8383610681565b6001600160a01b0384166105d85760405163e602df0560e01b81525f6004820152602401610343565b6001600160a01b03831661060157604051634a1406b160e11b81525f6004820152602401610343565b6001600160a01b038085165f908152600160209081526040808320938716835292905220829055801561051857826001600160a01b0316846001600160a01b03167f8c5be1e5ebec7d5bd14f71427d1e84f3dd0314c0f7b2291e5b200ac8c7c3b9258460405161067391815260200190565b60405180910390a350505050565b6001600160a01b0383166106ab578060025f8282546106a091906108e2565b9091555061071b9050565b6001600160a01b0383165f90815260208190526040902054818110156106fd5760405163391434e360e21b81526001600160a01b03851660048201526024810182905260448101839052606401610343565b6001600160a01b0384165f9081526020819052604090209082900390555b6001600160a01b03821661073757600280548290039055610755565b6001600160a01b0382165f9081526020819052604090208054820190555b816001600160a01b0316836001600160a01b03167fddf252ad1be2c89b69c2b068fc378daa952ba7f163c4a11628f55a4df523b3ef8360405161079a91815260200190565b60405180910390a3505050565b602081525f82518060208401528060208501604085015e5f604082850101526040601f19601f83011684010191505092915050565b80356001600160a01b03811681146107f2575f80fd5b919050565b5f8060408385031215610808575f80fd5b610811836107dc565b946020939093013593505050565b5f805f60608486031215610831575f80fd5b61083a846107dc565b9250610848602085016107dc565b929592945050506040919091013590565b5f60208284031215610869575f80fd5b610872826107dc565b9392505050565b5f806040838503121561088a575f80fd5b610893836107dc565b91506108a1602084016107dc565b90509250929050565b600181811c908216806108be57607f821691505b6020821081036108dc57634e487b7160e01b5f52602260045260245ffd5b50919050565b808201808211156102b957634e487b7160e01b5f52601160045260245ffdfea2646970667358221220dc911ddde737ffe14622ca11199edb28aba3033ff15933e834991767fb5de93b64736f6c634300081a0033000000000000000000000000000000000000000000000000000000000000004000000000000000000000000000000000000000000000000000000000000000800000000000000000000000000000000000000000000000000000000000000004555344430000000000000000000000000000000000000000000000000000000000000000000000000000000000000000000000000000000000000000000000045553444300000000000000000000000000000000000000000000000000000000",
        "nonce": "0x1c",
        "chainId": "0x14a34"
      },
      "additionalContracts": [],
      "isFixedGasLimit": false
    },
    {
      "hash": "0xe6bf51dba0547b9e1d746c6ba1b172359a5d94e5325a2c162235ee823000027d",
      "transactionType": "CALL",
      "contractName": "TestToken",
      "contractAddress": "0x04a7879b5bdc08fd0cf232dcf0ccb1db7ae86abf",
      "function": "mint(address,uint256)",
      "arguments": [
        "0x17156c0cf9701b09114CB3619D9f3fD937caA3A8",
        "1000000000000000000000"
      ],
      "transaction": {
        "from": "0x17156c0cf9701b09114cb3619d9f3fd937caa3a8",
        "to": "0x04a7879b5bdc08fd0cf232dcf0ccb1db7ae86abf",
        "gas": "0xd025",
        "value": "0x0",
        "input": "0x40c10f1900000000000000000000000017156c0cf9701b09114cb3619d9f3fd937caa3a800000000000000000000000000000000000000000000003635c9adc5dea00000",
        "nonce": "0x1d",
        "chainId": "0x14a34"
      },
      "additionalContracts": [],
      "isFixedGasLimit": false
    },
    {
      "hash": "0x8dc791c51113989da0795c251acf7aeb93f8a276e59c67b05763c1a68ba16d89",
      "transactionType": "CALL",
      "contractName": "TestToken",
      "contractAddress": "0x04a7879b5bdc08fd0cf232dcf0ccb1db7ae86abf",
      "function": "mint(address,uint256)",
      "arguments": [
        "0x02B085fAB53e19aA6Ba2Ba98da93db598976f95D",
        "1000000000000000000000"
      ],
      "transaction": {
        "from": "0x17156c0cf9701b09114cb3619d9f3fd937caa3a8",
        "to": "0x04a7879b5bdc08fd0cf232dcf0ccb1db7ae86abf",
        "gas": "0x120d8",
        "value": "0x0",
        "input": "0x40c10f1900000000000000000000000002b085fab53e19aa6ba2ba98da93db598976f95d00000000000000000000000000000000000000000000003635c9adc5dea00000",
        "nonce": "0x1e",
        "chainId": "0x14a34"
      },
      "additionalContracts": [],
      "isFixedGasLimit": false
    },
    {
      "hash": "0x22fc198ed5e536a8754690161a525cad660ba71e646c65ff5e718515c4de1f27",
      "transactionType": "CALL",
      "contractName": "TestToken",
      "contractAddress": "0x04a7879b5bdc08fd0cf232dcf0ccb1db7ae86abf",
      "function": "mint(address,uint256)",
      "arguments": [
        "0x5b73C5498c1E3b4dbA84de0F1833c4a029d90519",
        "1000000000000000000000"
      ],
      "transaction": {
        "from": "0x17156c0cf9701b09114cb3619d9f3fd937caa3a8",
        "to": "0x04a7879b5bdc08fd0cf232dcf0ccb1db7ae86abf",
        "gas": "0x120d8",
        "value": "0x0",
        "input": "0x40c10f190000000000000000000000005b73c5498c1e3b4dba84de0f1833c4a029d9051900000000000000000000000000000000000000000000003635c9adc5dea00000",
        "nonce": "0x1f",
        "chainId": "0x14a34"
      },
      "additionalContracts": [],
      "isFixedGasLimit": false
    },
    {
      "hash": "0x53dd49b5899a544a823b60f9b86d013ae7d98a001c96805f4d6fa057731dcadb",
      "transactionType": "CALL",
      "contractName": "TestToken",
      "contractAddress": "0x04a7879b5bdc08fd0cf232dcf0ccb1db7ae86abf",
      "function": "mint(address,uint256)",
      "arguments": [
        "0x0000000000000000000000000000000000000001",
        "1000000000000000000000"
      ],
      "transaction": {
        "from": "0x17156c0cf9701b09114cb3619d9f3fd937caa3a8",
        "to": "0x04a7879b5bdc08fd0cf232dcf0ccb1db7ae86abf",
        "gas": "0x13089",
        "value": "0x0",
        "input": "0x40c10f19000000000000000000000000000000000000000000000000000000000000000100000000000000000000000000000000000000000000003635c9adc5dea00000",
        "nonce": "0x20",
        "chainId": "0x14a34"
      },
      "additionalContracts": [],
      "isFixedGasLimit": false
    },
    {
      "hash": "0x7bc4201cd1866d6c04097ad23b0483e87027e0bef69179d02a0a9ee4c580fca7",
      "transactionType": "CALL",
      "contractName": "TestToken",
      "contractAddress": "0x8683b74a60f2c6eb8215eb88416b745e86ddbe2d",
      "function": "mint(address,uint256)",
      "arguments": [
        "0x17156c0cf9701b09114CB3619D9f3fD937caA3A8",
        "1000000000000000000000"
      ],
      "transaction": {
        "from": "0x17156c0cf9701b09114cb3619d9f3fd937caa3a8",
        "to": "0x8683b74a60f2c6eb8215eb88416b745e86ddbe2d",
        "gas": "0xd025",
        "value": "0x0",
        "input": "0x40c10f1900000000000000000000000017156c0cf9701b09114cb3619d9f3fd937caa3a800000000000000000000000000000000000000000000003635c9adc5dea00000",
        "nonce": "0x21",
        "chainId": "0x14a34"
      },
      "additionalContracts": [],
      "isFixedGasLimit": false
    },
    {
      "hash": "0xef29333b78d2b142b9fc4c4791625f22ebef91a8565f9bc4e9834a3602dd9bbf",
      "transactionType": "CALL",
      "contractName": "TestToken",
      "contractAddress": "0x8683b74a60f2c6eb8215eb88416b745e86ddbe2d",
      "function": "mint(address,uint256)",
      "arguments": [
        "0x02B085fAB53e19aA6Ba2Ba98da93db598976f95D",
        "1000000000000000000000"
      ],
      "transaction": {
        "from": "0x17156c0cf9701b09114cb3619d9f3fd937caa3a8",
        "to": "0x8683b74a60f2c6eb8215eb88416b745e86ddbe2d",
        "gas": "0x120d8",
        "value": "0x0",
        "input": "0x40c10f1900000000000000000000000002b085fab53e19aa6ba2ba98da93db598976f95d00000000000000000000000000000000000000000000003635c9adc5dea00000",
        "nonce": "0x22",
        "chainId": "0x14a34"
      },
      "additionalContracts": [],
      "isFixedGasLimit": false
    },
    {
      "hash": "0x320588f0649c7eeea53c61d685129b397794ba35d52139f6f7b284803d1c84d3",
      "transactionType": "CALL",
      "contractName": "TestToken",
      "contractAddress": "0x8683b74a60f2c6eb8215eb88416b745e86ddbe2d",
      "function": "mint(address,uint256)",
      "arguments": [
        "0x5b73C5498c1E3b4dbA84de0F1833c4a029d90519",
        "1000000000000000000000"
      ],
      "transaction": {
        "from": "0x17156c0cf9701b09114cb3619d9f3fd937caa3a8",
        "to": "0x8683b74a60f2c6eb8215eb88416b745e86ddbe2d",
        "gas": "0x120d8",
        "value": "0x0",
        "input": "0x40c10f190000000000000000000000005b73c5498c1e3b4dba84de0f1833c4a029d9051900000000000000000000000000000000000000000000003635c9adc5dea00000",
        "nonce": "0x23",
        "chainId": "0x14a34"
      },
      "additionalContracts": [],
      "isFixedGasLimit": false
    },
    {
      "hash": "0xb5bbdfa388335a7b4900d58e3fdb273089e756cc8f9220372828d1d1b8f001d6",
      "transactionType": "CALL",
      "contractName": "TestToken",
      "contractAddress": "0x8683b74a60f2c6eb8215eb88416b745e86ddbe2d",
      "function": "mint(address,uint256)",
      "arguments": [
        "0x0000000000000000000000000000000000000001",
        "1000000000000000000000"
      ],
      "transaction": {
        "from": "0x17156c0cf9701b09114cb3619d9f3fd937caa3a8",
        "to": "0x8683b74a60f2c6eb8215eb88416b745e86ddbe2d",
        "gas": "0x13089",
        "value": "0x0",
        "input": "0x40c10f19000000000000000000000000000000000000000000000000000000000000000100000000000000000000000000000000000000000000003635c9adc5dea00000",
        "nonce": "0x24",
        "chainId": "0x14a34"
      },
      "additionalContracts": [],
      "isFixedGasLimit": false
    },
    {
      "hash": "0x5f36a7bf10b9d7e254c38fdd97607fe7f50f1f1b88b44f8e0ea6be3e462ce675",
      "transactionType": "CREATE2",
      "contractName": "TakeProfitsHook",
      "contractAddress": "0x256c1e930d23174cbad9a0c96099fb35bb531040",
      "function": null,
      "arguments": [
        "0x05E73354cFDd6745C338b50BcFDfA3Aa6fA03408",
        ""
      ],
      "transaction": {
        "from": "0x17156c0cf9701b09114cb3619d9f3fd937caa3a8",
        "to": "0x4e59b44847b379578588920ca78fbf26c0b4956c",
        "gas": "0x388ba8",
        "value": "0x0",
        "input": "0x000000000000000000000000000000000000000000000000000000000000db8a60a060405234801561000f575f80fd5b5060405161345138038061345183398101604081905261002e916102ce565b6001600160a01b038216608052808261004630610058565b506100508161014e565b5050506104db565b61014b81610146604080516101c0810182525f80825260208201819052918101829052606081018290526080810182905260a0810182905260c0810182905260e08101829052610100810182905261012081018290526101408101829052610160810182905261018081018290526101a081019190915250604080516101c0810182525f808252600160208301819052928201819052606082018190526080820181905260a0820181905260c0820181905260e0820192909252610100810182905261012081018290526101408101829052610160810182905261018081018290526101a081019190915290565b61015e565b50565b600261015a8282610421565b5050565b80511515612000831615151415806101825750602081015115156110008316151514155b806101995750604081015115156108008316151514155b806101b05750606081015115156104008316151514155b806101c75750608081015115156102008316151514155b806101de575060a081015115156101008316151514155b806101f4575060c0810151151560808316151514155b8061020a575060e0810151151560408316151514155b806102215750610100810151151560208316151514155b806102385750610120810151151560108316151514155b8061024f5750610140810151151560088316151514155b806102665750610160810151151560048316151514155b8061027d5750610180810151151560028316151514155b8061029457506101a0810151151560018316151514155b1561015a5761015a630732d7b560e51b83815f526001600160a01b03811660045260245ffd5b634e487b7160e01b5f52604160045260245ffd5b5f80604083850312156102df575f80fd5b82516001600160a01b03811681146102f5575f80fd5b60208401519092506001600160401b03811115610310575f80fd5b8301601f81018513610320575f80fd5b80516001600160401b03811115610339576103396102ba565b604051601f8201601f19908116603f011681016001600160401b0381118282101715610367576103676102ba565b60405281815282820160200187101561037e575f80fd5b8160208401602083015e5f602083830101528093505050509250929050565b600181811c908216806103b157607f821691505b6020821081036103cf57634e487b7160e01b5f52602260045260245ffd5b50919050565b601f82111561041c57805f5260205f20601f840160051c810160208510156103fa5750805b601f840160051c820191505b81811015610419575f8155600101610406565b50505b505050565b81516001600160401b0381111561043a5761043a6102ba565b61044e81610448845461039d565b846103d5565b6020601f821160018114610480575f83156104695750848201515b5f19600385901b1c1916600184901b178455610419565b5f84815260208120601f198516915b828110156104af578785015182556020948501946001909201910161048f565b50848210156104cc57868401515f19600387901b60f8161c191681555b50505050600190811b01905550565b608051612f0361054e5f395f818161051e0152818161082c01528181610a3701528181610aa001528181610b0901528181610ce101528181610d4901528181610dac0152818161153d01528181611d0a01528181611e9c01528181611f0301528181611f3c0152611ffd0152612f035ff3fe608060405234801561000f575f80fd5b50600436106101ba575f3560e01c80639f063efc116100f3578063dc4c90d311610093578063e1b4af691161006e578063e1b4af691461040f578063e4cbfea51461057e578063e985e9c5146105a0578063f242432a146105db575f80fd5b8063dc4c90d314610519578063dc98354e14610558578063dd02c9641461056b575f80fd5b8063b47b2fb1116100ce578063b47b2fb1146103ba578063b5a33914146103f0578063b6a8b0fa1461040f578063c4e833ce14610422575f80fd5b80639f063efc1461030b578063a22cb46514610377578063a2dc31b21461038a575f80fd5b806334a838221161015e578063575e24b411610139578063575e24b4146102cd5780636c2bbe7e1461030b5780636fe7e6eb1461033e5780637e8941af14610351575f80fd5b806334a838221461027b5780633bb76cc11461028e5780634e1273f4146102ad575f80fd5b80630e89341c116101995780630e89341c1461021c57806321d0ee701461023c578063259982e51461023c5780632eb2c2d614610268575f80fd5b8062fdd58e146101be57806301ffc9a7146101e45780630362668614610207575b5f80fd5b6101d16101cc366004612067565b6105ee565b6040519081526020015b60405180910390f35b6101f76101f23660046120a6565b610615565b60405190151581526020016101db565b61021a6102153660046120fa565b610664565b005b61022f61022a366004612146565b61078e565b6040516101db919061218b565b61024f61024a3660046121eb565b610820565b6040516001600160e01b031990911681526020016101db565b61021a6102763660046123a0565b610881565b6101d1610289366004612453565b61090b565b6101d161029c366004612146565b60056020525f908152604090205481565b6102c06102bb366004612498565b61095e565b6040516101db9190612597565b6102e06102db3660046125b9565b610a29565b604080516001600160e01b03199094168452602084019290925262ffffff16908201526060016101db565b61031e610319366004612613565b610a93565b604080516001600160e01b031990931683526020830191909152016101db565b61024f61034c36600461269e565b610afd565b61036461035f3660046120fa565b610b5c565b60405160029190910b81526020016101db565b61021a6103853660046126f5565b610cc5565b6101d161039836600461272c565b600460209081525f938452604080852082529284528284209052825290205481565b6103cd6103c836600461275e565b610cd4565b604080516001600160e01b03199093168352600f9190910b6020830152016101db565b6101d16103fe366004612146565b60066020525f908152604090205481565b61024f61041d3660046127df565b610d3d565b61050c604080516101c0810182525f80825260208201819052918101829052606081018290526080810182905260a0810182905260c0810182905260e08101829052610100810182905261012081018290526101408101829052610160810182905261018081018290526101a081019190915250604080516101c0810182525f808252600160208301819052928201819052606082018190526080820181905260a0820181905260c0820181905260e0820192909252610100810182905261012081018290526101408101829052610160810182905261018081018290526101a081019190915290565b6040516101db9190612839565b6105407f000000000000000000000000000000000000000000000000000000000000000081565b6040516001600160a01b0390911681526020016101db565b61024f61056636600461295a565b610da0565b61021a6105793660046120fa565b610dfd565b61036461058c366004612146565b60036020525f908152604090205460020b81565b6101f76105ae366004612996565b6001600160a01b039182165f90815260016020908152604080832093909416825291909152205460ff1690565b61021a6105e93660046129c2565b610f43565b5f818152602081815260408083206001600160a01b03861684529091529020545b92915050565b5f6001600160e01b03198216636cdb3d1360e11b148061064557506001600160e01b031982166303a24d0760e21b145b8061060f57506301ffc9a760e01b6001600160e01b031983161461060f565b5f61067e846106796080880160608901612a1a565b610fc0565b90505f61068c86838661090b565b90505f61069933836105ee565b9050838110156106bc57604051639378648960e01b815260040160405180910390fd5b8360045f6106d96106d2368c90038c018c612a45565b60a0902090565b815260208082019290925260409081015f908120600288900b82528352818120891515825290925281208054909190610713908490612aed565b90915550505f8281526006602052604081208054869290610735908490612aed565b909155506107469050338386611008565b5f856107615761075c6040890160208a01612b00565b61076e565b61076e6020890189612b00565b90506107846001600160a01b0382163387611075565b5050505050505050565b60606002805461079d90612b1b565b80601f01602080910402602001604051908101604052809291908181526020018280546107c990612b1b565b80156108145780601f106107eb57610100808354040283529160200191610814565b820191905f5260205f20905b8154815290600101906020018083116107f757829003601f168201915b50505050509050919050565b5f336001600160a01b037f0000000000000000000000000000000000000000000000000000000000000000161461086a5760405163570c108560e11b815260040160405180910390fd5b610877868686868661111a565b9695505050505050565b336001600160a01b03861681148015906108c057506001600160a01b038087165f9081526001602090815260408083209385168352929052205460ff16155b156108f65760405163711bec9160e11b81526001600160a01b038083166004830152871660248201526044015b60405180910390fd5b6109038686868686611134565b505050505050565b5f61091e6106d236869003860186612a45565b604080516020810192909252600285900b90820152821515606082015260800160408051601f198184030181529190528051602090910120949350505050565b6060815183511461098f5781518351604051635b05999160e01b8152600481019290925260248201526044016108ed565b5f835167ffffffffffffffff8111156109aa576109aa612262565b6040519080825280602002602001820160405280156109d3578160200160208202803683370190505b5090505f5b8451811015610a21576020808202860101516109fc906020808402870101516105ee565b828281518110610a0e57610a0e612b4d565b60209081029190910101526001016109d8565b509392505050565b5f8080336001600160a01b037f00000000000000000000000000000000000000000000000000000000000000001614610a755760405163570c108560e11b815260040160405180910390fd5b610a828888888888611192565b925092509250955095509592505050565b5f80336001600160a01b037f00000000000000000000000000000000000000000000000000000000000000001614610ade5760405163570c108560e11b815260040160405180910390fd5b610aed898989898989896111ae565b9150915097509795505050505050565b5f336001600160a01b037f00000000000000000000000000000000000000000000000000000000000000001614610b475760405163570c108560e11b815260040160405180910390fd5b610b53858585856111c9565b95945050505050565b5f80610b72856106796080890160608a01612a1a565b90508260045f610b8a6106d2368b90038b018b612a45565b815260208082019290925260409081015f908120600286900b82528352818120881515825290925281208054909190610bc4908490612b61565b909155505f9050610bd687838761090b565b90508360065f8381526020019081526020015f205f828254610bf89190612b61565b92505081905550610c1933828660405180602001604052805f815250611216565b5f85610c3457610c2f6040890160208a01612b00565b610c41565b610c416020890189612b00565b6040516323b872dd60e01b8152336004820152306024820152604481018790529091506001600160a01b038216906323b872dd906064016020604051808303815f875af1158015610c94573d5f803e3d5ffd5b505050506040513d601f19601f82011682018060405250810190610cb89190612b74565b5091979650505050505050565b610cd0338383611271565b5050565b5f80336001600160a01b037f00000000000000000000000000000000000000000000000000000000000000001614610d1f5760405163570c108560e11b815260040160405180910390fd5b610d2d888888888888611305565b915091505b965096945050505050565b5f336001600160a01b037f00000000000000000000000000000000000000000000000000000000000000001614610d875760405163570c108560e11b815260040160405180910390fd5b610d9587878787878761111a565b979650505050505050565b5f336001600160a01b037f00000000000000000000000000000000000000000000000000000000000000001614610dea5760405163570c108560e11b815260040160405180910390fd5b610df584848461111a565b949350505050565b5f610e12846106796080880160608901612a1a565b90505f610e2086838661090b565b5f8181526005602052604081205491925003610e4f576040516312d37ee560e31b815260040160405180910390fd5b5f610e5a33836105ee565b905083811015610e7d57604051639378648960e01b815260040160405180910390fd5b5f8281526005602090815260408083205460069092528220549091610ea38784846113a9565b90508060055f8781526020019081526020015f205f828254610ec59190612aed565b90915550505f8581526006602052604081208054899290610ee7908490612aed565b90915550610ef89050338689611008565b5f88610f1057610f0b60208c018c612b00565b610f20565b610f2060408c0160208d01612b00565b9050610f366001600160a01b0382163384611075565b5050505050505050505050565b336001600160a01b0386168114801590610f8257506001600160a01b038087165f9081526001602090815260408083209385168352929052205460ff16155b15610fb35760405163711bec9160e11b81526001600160a01b038083166004830152871660248201526044016108ed565b61090386868686866113c4565b5f80610fcc8385612ba3565b90505f8460020b128015610feb5750610fe58385612bdb565b60020b15155b15610ffe5780610ffa81612bfc565b9150505b610df58382612c1d565b6001600160a01b03831661103057604051626a0d4560e21b81525f60048201526024016108ed565b604080516001808252602082018590528183019081526060820184905260a082019092525f6080820181815291929161106e91879185908590611450565b5050505050565b5f6001600160a01b0384166110aa575f805f8085875af19050806110a5576110a5835f633d2cec6f60e21b6114a3565b611114565b60405163a9059cbb60e01b81526001600160a01b038416600482015282602482015260205f6044835f895af13d15601f3d1160015f511416171691505f81525f60208201525f60408201525080611114576111148463a9059cbb60e01b633c9fd93960e21b6114a3565b50505050565b5f604051630a85dc2960e01b815260040160405180910390fd5b6001600160a01b03841661115d57604051632bfa23e760e11b81525f60048201526024016108ed565b6001600160a01b03851661118557604051626a0d4560e21b81525f60048201526024016108ed565b61106e8585858585611450565b5f805f604051630a85dc2960e01b815260040160405180910390fd5b5f80604051630a85dc2960e01b815260040160405180910390fd5b5f816003826111e06106d236899003890189612a45565b815260208101919091526040015f20805462ffffff191662ffffff9290921691909117905550636fe7e6eb60e01b949350505050565b6001600160a01b03841661123f57604051632bfa23e760e11b81525f60048201526024016108ed565b604080516001808252602082018690528183019081526060820185905260808201909252906109035f87848487611450565b6001600160a01b0382166112995760405162ced3e160e81b81525f60048201526024016108ed565b6001600160a01b038381165f81815260016020908152604080832094871680845294825291829020805460ff191686151590811790915591519182527f17307eab39ab6107e8899845ad3d59bd9653f200f220920489ca2b5937696c31910160405180910390a3505050565b5f80306001600160a01b03891603611328575063b47b2fb160e01b90505f610d32565b60015f5b8115611353576113498961134360208b018b612c3c565b1561151b565b909250905061132c565b8060035f6113696106d2368e90038e018e612a45565b815260208101919091526040015f908120805462ffffff191662ffffff939093169290921790915563b47b2fb160e01b9b909a5098505050505050505050565b5f825f1904841183021582026113bd575f80fd5b5091020490565b6001600160a01b0384166113ed57604051632bfa23e760e11b81525f60048201526024016108ed565b6001600160a01b03851661141557604051626a0d4560e21b81525f60048201526024016108ed565b604080516001808252602082018690528183019081526060820185905260808201909252906114478787848487611450565b50505050505050565b61145c858585856116d5565b6001600160a01b0384161561106e5782513390600103611495576020848101519084015161148e8389898585896118e4565b5050610903565b610903818787878787611a05565b6040516390bfb86560e01b8082526001600160a01b03851660048301526001600160e01b031984166024830152608060448301526020601f3d018190040260a0810160648401523d608484015290913d5f60a483013e60048260a4018201526001600160e01b031984168260c4018201528160e40181fd5b5f80806115636115336106d236889003880188612a45565b6001600160a01b037f00000000000000000000000000000000000000000000000000000000000000001690611aec565b50509150505f60035f611580888036038101906106d29190612a45565b815260208101919091526040015f2054600290810b915082900b81121561163e57805b8260020b8160020b1215611638575f6004816115c76106d2368c90038c018c612a45565b815260208082019290925260409081015f908120600286900b825283528181208a15158252909252902054905080156116165761160688838984611b9e565b60018495509550505050506116ce565b506116276080880160608901612a1a565b6116319082612c57565b90506115a3565b506116c7565b805b8260020b8160020b13156116c5575f6004816116646106d2368c90038c018c612a45565b815260208082019290925260409081015f908120600286900b825283528181208a15158252909252902054905080156116a35761160688838984611b9e565b506116b46080880160608901612a1a565b6116be9082612c7c565b9050611640565b505b505f925090505b9250929050565b80518251146117045781518151604051635b05999160e01b8152600481019290925260248201526044016108ed565b335f5b8351811015611806576020818102858101820151908501909101516001600160a01b038816156117b8575f828152602081815260408083206001600160a01b038c16845290915290205481811015611792576040516303dee4c560e01b81526001600160a01b038a1660048201526024810182905260448101839052606481018490526084016108ed565b5f838152602081815260408083206001600160a01b038d16845290915290209082900390555b6001600160a01b038716156117fc575f828152602081815260408083206001600160a01b038b168452909152812080548392906117f6908490612b61565b90915550505b5050600101611707565b5082516001036118865760208301515f906020840151909150856001600160a01b0316876001600160a01b0316846001600160a01b03167fc3d58168c5ae7397731d063d5bbf3d657854427343f4c083240f7aacaa2d0f628585604051611877929190918252602082015260400190565b60405180910390a4505061106e565b836001600160a01b0316856001600160a01b0316826001600160a01b03167f4a39dc06d4c0dbc64b70af90fd698a233a518aa5d07e595d983b8c0526c8f7fb86866040516118d5929190612ca1565b60405180910390a45050505050565b6001600160a01b0384163b156109035760405163f23a6e6160e01b81526001600160a01b0385169063f23a6e61906119289089908990889088908890600401612cc5565b6020604051808303815f875af1925050508015611962575060408051601f3d908101601f1916820190925261195f91810190612d01565b60015b6119c9573d80801561198f576040519150601f19603f3d011682016040523d82523d5f602084013e611994565b606091505b5080515f036119c157604051632bfa23e760e11b81526001600160a01b03861660048201526024016108ed565b805181602001fd5b6001600160e01b0319811663f23a6e6160e01b1461144757604051632bfa23e760e11b81526001600160a01b03861660048201526024016108ed565b6001600160a01b0384163b156109035760405163bc197c8160e01b81526001600160a01b0385169063bc197c8190611a499089908990889088908890600401612d1c565b6020604051808303815f875af1925050508015611a83575060408051601f3d908101601f19168201909252611a8091810190612d01565b60015b611ab0573d80801561198f576040519150601f19603f3d011682016040523d82523d5f602084013e611994565b6001600160e01b0319811663bc197c8160e01b1461144757604051632bfa23e760e11b81526001600160a01b03861660048201526024016108ed565b5f805f805f611afa86611cca565b604051631e2eaeaf60e01b8152600481018290529091505f906001600160a01b03891690631e2eaeaf90602401602060405180830381865afa158015611b42573d5f803e3d5ffd5b505050506040513d601f19601f82011682018060405250810190611b669190612d7e565b90506001600160a01b03811695508060a01c60020b945062ffffff8160b81c16935062ffffff8160d01c169250505092959194509250565b5f611c0e856040518060600160405280861515815260200185611bc090612d95565b815260200186611bee57611be9600173fffd8963efd1fc6a506488495d951d5263988d26612daf565b611bfe565b611bfe6401000276a36001612dce565b6001600160a01b03169052611d06565b90508160045f611c266106d2368a90038a018a612a45565b815260208082019290925260409081015f908120600289900b82528352818120871515825290925281208054909190611c60908490612aed565b909155505f9050611c7286868661090b565b90505f84611c8c57611c848360801d90565b600f0b611c9a565b611c9683600f0b90565b600f0b5b90508060055f8481526020019081526020015f205f828254611cbc9190612b61565b909155505050505050505050565b6040515f90611ce9908390600690602001918252602082015260400190565b604051602081830303815290604052805190602001209050919050565b5f807f00000000000000000000000000000000000000000000000000000000000000006001600160a01b031663f3cd914c85856040518363ffffffff1660e01b8152600401611d56929190612ded565b6020604051808303815f875af1158015611d72573d5f803e3d5ffd5b505050506040513d601f19601f82011682018060405250810190611d969190612d7e565b835190915015611e17575f611dab8260801d90565b600f0b1215611ddc57611ddc611dc46020860186612b00565b611dce8360801d90565b611dd790612ea0565b611e7d565b5f611de782600f0b90565b600f0b1315611e1257611e12611e036040860160208701612b00565b611e0d83600f0b90565b611fc0565b611e76565b5f611e2282600f0b90565b600f0b1215611e4857611e48611e3e6040860160208701612b00565b611dce83600f0b90565b5f611e538260801d90565b600f0b1315611e7657611e76611e6c6020860186612b00565b611e0d8360801d90565b9392505050565b604051632961046560e21b81526001600160a01b0383811660048301527f0000000000000000000000000000000000000000000000000000000000000000169063a5841194906024015f604051808303815f87803b158015611edd575f80fd5b505af1158015611eef573d5f803e3d5ffd5b50611f3a925050506001600160a01b0383167f00000000000000000000000000000000000000000000000000000000000000006fffffffffffffffffffffffffffffffff8416611075565b7f00000000000000000000000000000000000000000000000000000000000000006001600160a01b03166311da60b46040518163ffffffff1660e01b81526004016020604051808303815f875af1158015611f97573d5f803e3d5ffd5b505050506040513d601f19601f82011682018060405250810190611fbb9190612d7e565b505050565b604051630b0d9c0960e01b81526001600160a01b0383811660048301523060248301526fffffffffffffffffffffffffffffffff831660448301527f00000000000000000000000000000000000000000000000000000000000000001690630b0d9c09906064015f604051808303815f87803b15801561203e575f80fd5b505af1158015610903573d5f803e3d5ffd5b6001600160a01b0381168114612064575f80fd5b50565b5f8060408385031215612078575f80fd5b823561208381612050565b946020939093013593505050565b6001600160e01b031981168114612064575f80fd5b5f602082840312156120b6575f80fd5b8135611e7681612091565b5f60a082840312156120d1575f80fd5b50919050565b8035600281900b81146120e8575f80fd5b919050565b8015158114612064575f80fd5b5f805f80610100858703121561210e575f80fd5b61211886866120c1565b935061212660a086016120d7565b925060c0850135612136816120ed565b9396929550929360e00135925050565b5f60208284031215612156575f80fd5b5035919050565b5f81518084528060208401602086015e5f602082860101526020601f19601f83011685010191505092915050565b602081525f611e76602083018461215d565b5f608082840312156120d1575f80fd5b5f8083601f8401126121bd575f80fd5b50813567ffffffffffffffff8111156121d4575f80fd5b6020830191508360208285010111156116ce575f80fd5b5f805f805f6101608688031215612200575f80fd5b853561220b81612050565b945061221a87602088016120c1565b93506122298760c0880161219d565b925061014086013567ffffffffffffffff811115612245575f80fd5b612251888289016121ad565b969995985093965092949392505050565b634e487b7160e01b5f52604160045260245ffd5b604051601f8201601f1916810167ffffffffffffffff8111828210171561229f5761229f612262565b604052919050565b5f67ffffffffffffffff8211156122c0576122c0612262565b5060051b60200190565b5f82601f8301126122d9575f80fd5b81356122ec6122e7826122a7565b612276565b8082825260208201915060208360051b86010192508583111561230d575f80fd5b602085015b8381101561232a578035835260209283019201612312565b5095945050505050565b5f82601f830112612343575f80fd5b813567ffffffffffffffff81111561235d5761235d612262565b612370601f8201601f1916602001612276565b818152846020838601011115612384575f80fd5b816020850160208301375f918101602001919091529392505050565b5f805f805f60a086880312156123b4575f80fd5b85356123bf81612050565b945060208601356123cf81612050565b9350604086013567ffffffffffffffff8111156123ea575f80fd5b6123f6888289016122ca565b935050606086013567ffffffffffffffff811115612412575f80fd5b61241e888289016122ca565b925050608086013567ffffffffffffffff81111561243a575f80fd5b61244688828901612334565b9150509295509295909350565b5f805f60e08486031215612465575f80fd5b61246f85856120c1565b925061247d60a085016120d7565b915060c084013561248d816120ed565b809150509250925092565b5f80604083850312156124a9575f80fd5b823567ffffffffffffffff8111156124bf575f80fd5b8301601f810185136124cf575f80fd5b80356124dd6122e7826122a7565b8082825260208201915060208360051b8501019250878311156124fe575f80fd5b6020840193505b8284101561252957833561251881612050565b825260209384019390910190612505565b9450505050602083013567ffffffffffffffff811115612547575f80fd5b612553858286016122ca565b9150509250929050565b5f8151808452602084019350602083015f5b8281101561258d57815186526020958601959091019060010161256f565b5093949350505050565b602081525f611e76602083018461255d565b5f606082840312156120d1575f80fd5b5f805f805f61014086880312156125ce575f80fd5b85356125d981612050565b94506125e887602088016120c1565b93506125f78760c088016125a9565b925061012086013567ffffffffffffffff811115612245575f80fd5b5f805f805f805f6101a0888a03121561262a575f80fd5b873561263581612050565b96506126448960208a016120c1565b95506126538960c08a0161219d565b94506101408801359350610160880135925061018088013567ffffffffffffffff81111561267f575f80fd5b61268b8a828b016121ad565b989b979a50959850939692959293505050565b5f805f8061010085870312156126b2575f80fd5b84356126bd81612050565b93506126cc86602087016120c1565b925060c08501356126dc81612050565b91506126ea60e086016120d7565b905092959194509250565b5f8060408385031215612706575f80fd5b823561271181612050565b91506020830135612721816120ed565b809150509250929050565b5f805f6060848603121561273e575f80fd5b8335925061274e602085016120d7565b9150604084013561248d816120ed565b5f805f805f806101608789031215612774575f80fd5b863561277f81612050565b955061278e88602089016120c1565b945061279d8860c089016125a9565b9350610120870135925061014087013567ffffffffffffffff8111156127c1575f80fd5b6127cd89828a016121ad565b979a9699509497509295939492505050565b5f805f805f8061012087890312156127f5575f80fd5b863561280081612050565b955061280f88602089016120c1565b945060c0870135935060e0870135925061010087013567ffffffffffffffff8111156127c1575f80fd5b8151151581526101c081016020830151612857602084018215159052565b50604083015161286b604084018215159052565b50606083015161287f606084018215159052565b506080830151612893608084018215159052565b5060a08301516128a760a084018215159052565b5060c08301516128bb60c084018215159052565b5060e08301516128cf60e084018215159052565b506101008301516128e561010084018215159052565b506101208301516128fb61012084018215159052565b5061014083015161291161014084018215159052565b5061016083015161292761016084018215159052565b5061018083015161293d61018084018215159052565b506101a08301516129536101a084018215159052565b5092915050565b5f805f60e0848603121561296c575f80fd5b833561297781612050565b925061298685602086016120c1565b915060c084013561248d81612050565b5f80604083850312156129a7575f80fd5b82356129b281612050565b9150602083013561272181612050565b5f805f805f60a086880312156129d6575f80fd5b85356129e181612050565b945060208601356129f181612050565b93506040860135925060608601359150608086013567ffffffffffffffff81111561243a575f80fd5b5f60208284031215612a2a575f80fd5b611e76826120d7565b803562ffffff811681146120e8575f80fd5b5f60a0828403128015612a56575f80fd5b5060405160a0810167ffffffffffffffff81118282101715612a7a57612a7a612262565b6040528235612a8881612050565b81526020830135612a9881612050565b6020820152612aa960408401612a33565b6040820152612aba606084016120d7565b60608201526080830135612acd81612050565b60808201529392505050565b634e487b7160e01b5f52601160045260245ffd5b8181038181111561060f5761060f612ad9565b5f60208284031215612b10575f80fd5b8135611e7681612050565b600181811c90821680612b2f57607f821691505b6020821081036120d157634e487b7160e01b5f52602260045260245ffd5b634e487b7160e01b5f52603260045260245ffd5b8082018082111561060f5761060f612ad9565b5f60208284031215612b84575f80fd5b8151611e76816120ed565b634e487b7160e01b5f52601260045260245ffd5b5f8160020b8360020b80612bb957612bb9612b8f565b627fffff1982145f1982141615612bd257612bd2612ad9565b90059392505050565b5f8260020b80612bed57612bed612b8f565b808360020b0791505092915050565b5f8160020b627fffff198103612c1457612c14612ad9565b5f190192915050565b5f8260020b8260020b028060020b915080821461295357612953612ad9565b5f60208284031215612c4c575f80fd5b8135611e76816120ed565b600281810b9083900b01627fffff8113627fffff198212171561060f5761060f612ad9565b600282810b9082900b03627fffff198112627fffff8213171561060f5761060f612ad9565b604081525f612cb3604083018561255d565b8281036020840152610b53818561255d565b6001600160a01b03861681526001600160a01b038516602082015283604082015282606082015260a060808201525f610d9560a083018461215d565b5f60208284031215612d11575f80fd5b8151611e7681612091565b6001600160a01b03861681526001600160a01b038516602082015260a060408201525f612d4c60a083018661255d565b8281036060840152612d5e818661255d565b90508281036080840152612d72818561215d565b98975050505050505050565b5f60208284031215612d8e575f80fd5b5051919050565b5f600160ff1b8201612da957612da9612ad9565b505f0390565b6001600160a01b03828116828216039081111561060f5761060f612ad9565b6001600160a01b03818116838216019081111561060f5761060f612ad9565b5f8335612df981612050565b6001600160a01b031682526020840135612e1281612050565b6001600160a01b0316602083015262ffffff612e3060408601612a33565b166040830152612e42606085016120d7565b60020b60608301526080840135612e5881612050565b6001600160a01b0390811660808401528351151560a0840152602084015160c084015260408401511660e0830152610120610100830152610df561012083015f815260200190565b5f81600f0b6f7fffffffffffffffffffffffffffffff198103612ec557612ec5612ad9565b5f039291505056fea26469706673582212200935897a6a227d900f8e89ff98d314739399c87bf107b05d5583d6268f0e768864736f6c634300081a003300000000000000000000000005e73354cfdd6745c338b50bcfdfa3aa6fa0340800000000000000000000000000000000000000000000000000000000000000400000000000000000000000000000000000000000000000000000000000000000",
        "nonce": "0x25",
        "chainId": "0x14a34"
      },
      "additionalContracts": [],
      "isFixedGasLimit": false
    },
    {
      "hash": "0xa99e37942e18074fe1d734f8c91a90537ea3a344da78d0b47bf44b1699ace6e0",
      "transactionType": "CALL",
      "contractName": "TestToken",
      "contractAddress": "0x04a7879b5bdc08fd0cf232dcf0ccb1db7ae86abf",
      "function": "approve(address,uint256)",
      "arguments": [
        "0x256c1e930D23174cBad9A0c96099fb35bB531040",
        "115792089237316195423570985008687907853269984665640564039457584007913129639935"
      ],
      "transaction": {
        "from": "0x17156c0cf9701b09114cb3619d9f3fd937caa3a8",
        "to": "0x04a7879b5bdc08fd0cf232dcf0ccb1db7ae86abf",
        "gas": "0xfbfa",
        "value": "0x0",
        "input": "0x095ea7b3000000000000000000000000256c1e930d23174cbad9a0c96099fb35bb531040ffffffffffffffffffffffffffffffffffffffffffffffffffffffffffffffff",
        "nonce": "0x26",
        "chainId": "0x14a34"
      },
      "additionalContracts": [],
      "isFixedGasLimit": false
    },
    {
      "hash": "0x3308789504aab2b642f9530d9dc6f96326f253b3593491196137a703539ba6fd",
      "transactionType": "CALL",
      "contractName": "TestToken",
      "contractAddress": "0x8683b74a60f2c6eb8215eb88416b745e86ddbe2d",
      "function": "approve(address,uint256)",
      "arguments": [
        "0x256c1e930D23174cBad9A0c96099fb35bB531040",
        "115792089237316195423570985008687907853269984665640564039457584007913129639935"
      ],
      "transaction": {
        "from": "0x17156c0cf9701b09114cb3619d9f3fd937caa3a8",
        "to": "0x8683b74a60f2c6eb8215eb88416b745e86ddbe2d",
        "gas": "0xfbfa",
        "value": "0x0",
        "input": "0x095ea7b3000000000000000000000000256c1e930d23174cbad9a0c96099fb35bb531040ffffffffffffffffffffffffffffffffffffffffffffffffffffffffffffffff",
        "nonce": "0x27",
        "chainId": "0x14a34"
      },
      "additionalContracts": [],
      "isFixedGasLimit": false
    },
    {
      "hash": "0xafa13cdb46ab763b071f258ed0dbc8cbc6b972e0dccc00b89af5ded58ad2547d",
      "transactionType": "CALL",
      "contractName": "TestToken",
      "contractAddress": "0x04a7879b5bdc08fd0cf232dcf0ccb1db7ae86abf",
      "function": "approve(address,uint256)",
      "arguments": [
        "0x492E6456D9528771018DeB9E87ef7750EF184104",
        "115792089237316195423570985008687907853269984665640564039457584007913129639935"
      ],
      "transaction": {
        "from": "0x17156c0cf9701b09114cb3619d9f3fd937caa3a8",
        "to": "0x04a7879b5bdc08fd0cf232dcf0ccb1db7ae86abf",
        "gas": "0xfbfa",
        "value": "0x0",
        "input": "0x095ea7b3000000000000000000000000492e6456d9528771018deb9e87ef7750ef184104ffffffffffffffffffffffffffffffffffffffffffffffffffffffffffffffff",
        "nonce": "0x28",
        "chainId": "0x14a34"
      },
      "additionalContracts": [],
      "isFixedGasLimit": false
    },
    {
      "hash": "0xcb94d9eb4de11cbf24d2aaa8b391077f4680a3eb6f3e747accb5b6bc2aa17b68",
      "transactionType": "CALL",
      "contractName": "TestToken",
      "contractAddress": "0x8683b74a60f2c6eb8215eb88416b745e86ddbe2d",
      "function": "approve(address,uint256)",
      "arguments": [
        "0x492E6456D9528771018DeB9E87ef7750EF184104",
        "115792089237316195423570985008687907853269984665640564039457584007913129639935"
      ],
      "transaction": {
        "from": "0x17156c0cf9701b09114cb3619d9f3fd937caa3a8",
        "to": "0x8683b74a60f2c6eb8215eb88416b745e86ddbe2d",
        "gas": "0xfbfa",
        "value": "0x0",
        "input": "0x095ea7b3000000000000000000000000492e6456d9528771018deb9e87ef7750ef184104ffffffffffffffffffffffffffffffffffffffffffffffffffffffffffffffff",
        "nonce": "0x29",
        "chainId": "0x14a34"
      },
      "additionalContracts": [],
      "isFixedGasLimit": false
    },
    {
      "hash": "0xf0694cdf4d120d33f9bbe20f0ab20777300f96e074903e9d3699f4fd518d2b80",
      "transactionType": "CALL",
      "contractName": "TestToken",
      "contractAddress": "0x04a7879b5bdc08fd0cf232dcf0ccb1db7ae86abf",
      "function": "approve(address,uint256)",
      "arguments": [
        "0x4B2C77d209D3405F41a037Ec6c77F7F5b8e2ca80",
        "115792089237316195423570985008687907853269984665640564039457584007913129639935"
      ],
      "transaction": {
        "from": "0x17156c0cf9701b09114cb3619d9f3fd937caa3a8",
        "to": "0x04a7879b5bdc08fd0cf232dcf0ccb1db7ae86abf",
        "gas": "0xfbfa",
        "value": "0x0",
        "input": "0x095ea7b30000000000000000000000004b2c77d209d3405f41a037ec6c77f7f5b8e2ca80ffffffffffffffffffffffffffffffffffffffffffffffffffffffffffffffff",
        "nonce": "0x2a",
        "chainId": "0x14a34"
      },
      "additionalContracts": [],
      "isFixedGasLimit": false
    },
    {
      "hash": "0xcd07cae02b04b08f5876e523c195f02b6eae4676ae6b5b710d1d3191e47842dd",
      "transactionType": "CALL",
      "contractName": "TestToken",
      "contractAddress": "0x8683b74a60f2c6eb8215eb88416b745e86ddbe2d",
      "function": "approve(address,uint256)",
      "arguments": [
        "0x4B2C77d209D3405F41a037Ec6c77F7F5b8e2ca80",
        "115792089237316195423570985008687907853269984665640564039457584007913129639935"
      ],
      "transaction": {
        "from": "0x17156c0cf9701b09114cb3619d9f3fd937caa3a8",
        "to": "0x8683b74a60f2c6eb8215eb88416b745e86ddbe2d",
        "gas": "0xfbfa",
        "value": "0x0",
        "input": "0x095ea7b30000000000000000000000004b2c77d209d3405f41a037ec6c77f7f5b8e2ca80ffffffffffffffffffffffffffffffffffffffffffffffffffffffffffffffff",
        "nonce": "0x2b",
        "chainId": "0x14a34"
      },
      "additionalContracts": [],
      "isFixedGasLimit": false
    },
    {
      "hash": "0xea76513d5e8e8c3d57ba3fdf74cf4e5e9e0ddd63542ecbb9f5a7b020be27ace1",
      "transactionType": "CALL",
      "contractName": "TestToken",
      "contractAddress": "0x04a7879b5bdc08fd0cf232dcf0ccb1db7ae86abf",
      "function": "approve(address,uint256)",
      "arguments": [
        "0x05E73354cFDd6745C338b50BcFDfA3Aa6fA03408",
        "115792089237316195423570985008687907853269984665640564039457584007913129639935"
      ],
      "transaction": {
        "from": "0x17156c0cf9701b09114cb3619d9f3fd937caa3a8",
        "to": "0x04a7879b5bdc08fd0cf232dcf0ccb1db7ae86abf",
        "gas": "0xfbfa",
        "value": "0x0",
        "input": "0x095ea7b300000000000000000000000005e73354cfdd6745c338b50bcfdfa3aa6fa03408ffffffffffffffffffffffffffffffffffffffffffffffffffffffffffffffff",
        "nonce": "0x2c",
        "chainId": "0x14a34"
      },
      "additionalContracts": [],
      "isFixedGasLimit": false
    },
    {
      "hash": "0x3fb410f181adef64c0b06b5cf9ed4f17be558d11e14e1ada1ff399a6bfcdec39",
      "transactionType": "CALL",
      "contractName": "TestToken",
      "contractAddress": "0x8683b74a60f2c6eb8215eb88416b745e86ddbe2d",
      "function": "approve(address,uint256)",
      "arguments": [
        "0x05E73354cFDd6745C338b50BcFDfA3Aa6fA03408",
        "115792089237316195423570985008687907853269984665640564039457584007913129639935"
      ],
      "transaction": {
        "from": "0x17156c0cf9701b09114cb3619d9f3fd937caa3a8",
        "to": "0x8683b74a60f2c6eb8215eb88416b745e86ddbe2d",
        "gas": "0xfbfa",
        "value": "0x0",
        "input": "0x095ea7b300000000000000000000000005e73354cfdd6745c338b50bcfdfa3aa6fa03408ffffffffffffffffffffffffffffffffffffffffffffffffffffffffffffffff",
        "nonce": "0x2d",
        "chainId": "0x14a34"
      },
      "additionalContracts": [],
      "isFixedGasLimit": false
    },
    {
      "hash": "0xc0c513a35d006a412a3c8381808d9868a242404c440f7fa3ef2903dcf7632be0",
      "transactionType": "CALL",
      "contractName": "TestToken",
      "contractAddress": "0x04a7879b5bdc08fd0cf232dcf0ccb1db7ae86abf",
      "function": "approve(address,uint256)",
      "arguments": [
        "0x37429cD17Cb1454C34E7F50b09725202Fd533039",
        "115792089237316195423570985008687907853269984665640564039457584007913129639935"
      ],
      "transaction": {
        "from": "0x17156c0cf9701b09114cb3619d9f3fd937caa3a8",
        "to": "0x04a7879b5bdc08fd0cf232dcf0ccb1db7ae86abf",
        "gas": "0xfbfa",
        "value": "0x0",
        "input": "0x095ea7b300000000000000000000000037429cd17cb1454c34e7f50b09725202fd533039ffffffffffffffffffffffffffffffffffffffffffffffffffffffffffffffff",
        "nonce": "0x2e",
        "chainId": "0x14a34"
      },
      "additionalContracts": [],
      "isFixedGasLimit": false
    },
    {
      "hash": "0x781fda48d2e9128d485081f3ae6c6066a2f72f13c93e24917d94df4d9def3b77",
      "transactionType": "CALL",
      "contractName": "TestToken",
      "contractAddress": "0x8683b74a60f2c6eb8215eb88416b745e86ddbe2d",
      "function": "approve(address,uint256)",
      "arguments": [
        "0x37429cD17Cb1454C34E7F50b09725202Fd533039",
        "115792089237316195423570985008687907853269984665640564039457584007913129639935"
      ],
      "transaction": {
        "from": "0x17156c0cf9701b09114cb3619d9f3fd937caa3a8",
        "to": "0x8683b74a60f2c6eb8215eb88416b745e86ddbe2d",
        "gas": "0xfbfa",
        "value": "0x0",
        "input": "0x095ea7b300000000000000000000000037429cd17cb1454c34e7f50b09725202fd533039ffffffffffffffffffffffffffffffffffffffffffffffffffffffffffffffff",
        "nonce": "0x2f",
        "chainId": "0x14a34"
      },
      "additionalContracts": [],
      "isFixedGasLimit": false
    },
    {
      "hash": "0xf09699a2cc31f5b97e19d36e66041060f41b56a02d3c376f5a7e6b51b217d385",
      "transactionType": "CALL",
      "contractName": null,
      "contractAddress": "0x05e73354cfdd6745c338b50bcfdfa3aa6fa03408",
      "function": "initialize((address,address,uint24,int24,address),uint160)",
      "arguments": [
        "(0x04A7879B5bDc08Fd0cf232DCf0ccB1dB7AE86abf, 0x8683B74A60f2c6Eb8215Eb88416B745E86DDbE2d, 8388608, 60, 0x256c1e930D23174cBad9A0c96099fb35bB531040)",
        "4411237397794263893240602165248"
      ],
      "transaction": {
        "from": "0x17156c0cf9701b09114cb3619d9f3fd937caa3a8",
        "to": "0x05e73354cfdd6745c338b50bcfdfa3aa6fa03408",
        "gas": "0x1aa93",
        "value": "0x0",
        "input": "0x6276cbbe00000000000000000000000004a7879b5bdc08fd0cf232dcf0ccb1db7ae86abf0000000000000000000000008683b74a60f2c6eb8215eb88416b745e86ddbe2d0000000000000000000000000000000000000000000000000000000000800000000000000000000000000000000000000000000000000000000000000000003c000000000000000000000000256c1e930d23174cbad9a0c96099fb35bb5310400000000000000000000000000000000000000037ad7a0d85e468000000000000",
        "nonce": "0x30",
        "chainId": "0x14a34"
      },
      "additionalContracts": [],
      "isFixedGasLimit": false
    },
    {
      "hash": "0x821b3405c822b6071d764dab57f00ee6edecc554023ff2d00640300aeb9174d7",
      "transactionType": "CALL",
      "contractName": null,
      "contractAddress": "0x37429cd17cb1454c34e7f50b09725202fd533039",
      "function": "modifyLiquidity((address,address,uint24,int24,address),(int24,int24,int256,bytes32),bytes)",
      "arguments": [
        "(0x04A7879B5bDc08Fd0cf232DCf0ccB1dB7AE86abf, 0x8683B74A60f2c6Eb8215Eb88416B745E86DDbE2d, 8388608, 60, 0x256c1e930D23174cBad9A0c96099fb35bB531040)",
        "(-6000, 6000, 100000000000000000000, 0x0000000000000000000000000000000000000000000000000000000000000000)",
        "0x"
      ],
      "transaction": {
        "from": "0x17156c0cf9701b09114cb3619d9f3fd937caa3a8",
        "to": "0x37429cd17cb1454c34e7f50b09725202fd533039",
        "gas": "0x4ff62",
        "value": "0x0",
        "input": "0x5a6bcfda00000000000000000000000004a7879b5bdc08fd0cf232dcf0ccb1db7ae86abf0000000000000000000000008683b74a60f2c6eb8215eb88416b745e86ddbe2d0000000000000000000000000000000000000000000000000000000000800000000000000000000000000000000000000000000000000000000000000000003c000000000000000000000000256c1e930d23174cbad9a0c96099fb35bb531040ffffffffffffffffffffffffffffffffffffffffffffffffffffffffffffe89000000000000000000000000000000000000000000000000000000000000017700000000000000000000000000000000000000000000000056bc75e2d63100000000000000000000000000000000000000000000000000000000000000000000000000000000000000000000000000000000000000000000000000000000001400000000000000000000000000000000000000000000000000000000000000000",
        "nonce": "0x31",
        "chainId": "0x14a34"
      },
      "additionalContracts": [],
      "isFixedGasLimit": false
    },
    {
      "hash": "0x51528d65daace2929ea3cd92858c5d30b10465914e92d6d2a0721250ea97a527",
      "transactionType": "CALL",
      "contractName": "TestToken",
      "contractAddress": "0x04a7879b5bdc08fd0cf232dcf0ccb1db7ae86abf",
      "function": "transferOwnership(address)",
      "arguments": [
        "0x17156c0cf9701b09114CB3619D9f3fD937caA3A8"
      ],
      "transaction": {
        "from": "0x17156c0cf9701b09114cb3619d9f3fd937caa3a8",
        "to": "0x04a7879b5bdc08fd0cf232dcf0ccb1db7ae86abf",
        "gas": "0x8a67",
        "value": "0x0",
        "input": "0xf2fde38b00000000000000000000000017156c0cf9701b09114cb3619d9f3fd937caa3a8",
        "nonce": "0x32",
        "chainId": "0x14a34"
      },
      "additionalContracts": [],
      "isFixedGasLimit": false
    },
    {
      "hash": "0x1107b2cdcb443c1a6e59087f598b31f93d6105559645777943c2c779deb5db45",
      "transactionType": "CALL",
      "contractName": "TestToken",
      "contractAddress": "0x8683b74a60f2c6eb8215eb88416b745e86ddbe2d",
      "function": "transferOwnership(address)",
      "arguments": [
        "0x17156c0cf9701b09114CB3619D9f3fD937caA3A8"
      ],
      "transaction": {
        "from": "0x17156c0cf9701b09114cb3619d9f3fd937caa3a8",
        "to": "0x8683b74a60f2c6eb8215eb88416b745e86ddbe2d",
        "gas": "0x8a67",
        "value": "0x0",
        "input": "0xf2fde38b00000000000000000000000017156c0cf9701b09114cb3619d9f3fd937caa3a8",
        "nonce": "0x33",
        "chainId": "0x14a34"
      },
      "additionalContracts": [],
      "isFixedGasLimit": false
    }
  ],
  "receipts": [
    {
      "status": "0x1",
      "cumulativeGasUsed": "0x176040c",
      "logs": [
        {
          "address": "0x04a7879b5bdc08fd0cf232dcf0ccb1db7ae86abf",
          "topics": [
            "0xddf252ad1be2c89b69c2b068fc378daa952ba7f163c4a11628f55a4df523b3ef",
            "0x0000000000000000000000000000000000000000000000000000000000000000",
            "0x00000000000000000000000017156c0cf9701b09114cb3619d9f3fd937caa3a8"
          ],
          "data": "0x000000000000000000000000000000000000000000084595161401484a000000",
          "blockHash": "0x6c037d4bb4d196505de299cfe053ed6eb1904bdcb8b08c2df20a1acc0413b750",
          "blockNumber": "0x18a1378",
          "blockTimestamp": "0x682785d0",
          "transactionHash": "0x064ef25e802aef292e4925925ad83969b4a75be4d1c46b0dd89e7f8e700cf494",
          "transactionIndex": "0x1c",
          "logIndex": "0x16c",
          "removed": false
        }
      ],
      "logsBloom": "0x00000000000000000000000000000000000000000000000000000020000000000000000000000000000000000000000000000000000000000000000000000400000000000000000000000008000000000000000000000000000000000000000000000000020000000010000000000800000000000000000000000010004000000000000000000000000000000000000000000000000000000000000000000000000000000100000000000000000000000000000000000000000000000000000000000002000000000040000000000000000000000000000000000000000020000000000000000000000000000000000000000000000000000000000000000000",
      "type": "0x2",
      "transactionHash": "0x064ef25e802aef292e4925925ad83969b4a75be4d1c46b0dd89e7f8e700cf494",
      "transactionIndex": "0x1c",
      "blockHash": "0x6c037d4bb4d196505de299cfe053ed6eb1904bdcb8b08c2df20a1acc0413b750",
      "blockNumber": "0x18a1378",
      "gasUsed": "0xa9d27",
      "effectiveGasPrice": "0xf4608",
      "from": "0x17156c0cf9701b09114cb3619d9f3fd937caa3a8",
      "to": null,
      "contractAddress": "0x04a7879b5bdc08fd0cf232dcf0ccb1db7ae86abf",
      "l1BaseFeeScalar": "0x44d",
      "l1BlobBaseFee": "0x1",
      "l1BlobBaseFeeScalar": "0xa118b",
      "l1Fee": "0x3cdee517e1",
      "l1GasPrice": "0x1bd3d9316",
      "l1GasUsed": "0x7c2c"
    },
    {
      "status": "0x1",
      "cumulativeGasUsed": "0x19d20d1",
      "logs": [
        {
          "address": "0x8683b74a60f2c6eb8215eb88416b745e86ddbe2d",
          "topics": [
            "0xddf252ad1be2c89b69c2b068fc378daa952ba7f163c4a11628f55a4df523b3ef",
            "0x0000000000000000000000000000000000000000000000000000000000000000",
            "0x00000000000000000000000017156c0cf9701b09114cb3619d9f3fd937caa3a8"
          ],
          "data": "0x000000000000000000000000000000000000000000084595161401484a000000",
          "blockHash": "0x268cc5b33cdd4eca38b5b8eed579763e8e28fffae36dd60209af81bc7faa5f91",
          "blockNumber": "0x18a1378",
          "blockTimestamp": "0x682785d0",
          "transactionHash": "0xa931faef9280734f4f9c5483326e48a1b1a81903de2311dc72185d56769a1088",
          "transactionIndex": "0x23",
          "logIndex": "0x187",
          "removed": false
        }
      ],
      "logsBloom": "0x00000000000000000000000000000000000000000000000000000020000000000000000000000000000000000000000000000000000000000000000000000400000000000000000000000008000000000000000000000000000000000000000000000000020000000000000000000800000000000000000000000010000000000000000000000000000000000000000000000000000000000000000000000000000000000100000000100000000000000000000000000000000000000000000000000002000000000000000000000000000008000000000000000000000020000000000000000000000000000000000008000000000000000000000000000000",
      "type": "0x2",
      "transactionHash": "0xa931faef9280734f4f9c5483326e48a1b1a81903de2311dc72185d56769a1088",
      "transactionIndex": "0x23",
      "blockHash": "0x268cc5b33cdd4eca38b5b8eed579763e8e28fffae36dd60209af81bc7faa5f91",
      "blockNumber": "0x18a1378",
      "gasUsed": "0xa9caf",
      "effectiveGasPrice": "0xf4608",
      "from": "0x17156c0cf9701b09114cb3619d9f3fd937caa3a8",
      "to": null,
      "contractAddress": "0x8683b74a60f2c6eb8215eb88416b745e86ddbe2d",
      "l1BaseFeeScalar": "0x44d",
      "l1BlobBaseFee": "0x1",
      "l1BlobBaseFeeScalar": "0xa118b",
      "l1Fee": "0x3c9d4903ba",
      "l1GasPrice": "0x1bd3d9316",
      "l1GasUsed": "0x7ba6"
    },
    {
      "status": "0x1",
      "cumulativeGasUsed": "0x1a0862c",
      "logs": [
        {
          "address": "0x04a7879b5bdc08fd0cf232dcf0ccb1db7ae86abf",
          "topics": [
            "0xddf252ad1be2c89b69c2b068fc378daa952ba7f163c4a11628f55a4df523b3ef",
            "0x0000000000000000000000000000000000000000000000000000000000000000",
            "0x00000000000000000000000017156c0cf9701b09114cb3619d9f3fd937caa3a8"
          ],
          "data": "0x00000000000000000000000000000000000000000000003635c9adc5dea00000",
          "blockHash": "0x7ff0b9091fdc191ffe86aeafff16c0394cf94285274a48b2a9e90c5c66a9df23",
          "blockNumber": "0x18a1378",
          "blockTimestamp": "0x682785d0",
          "transactionHash": "0xe6bf51dba0547b9e1d746c6ba1b172359a5d94e5325a2c162235ee823000027d",
          "transactionIndex": "0x25",
          "logIndex": "0x18a",
          "removed": false
        }
      ],
      "logsBloom": "0x00000000000000000000000000000000000000000000000000000020000000000000000000000000000000000000000000000000000000000000000000000400000000000000000000000008000000000000000000000000000000000000000000000000020000000010000000000800000000000000000000000010004000000000000000000000000000000000000000000000000000000000000000000000000000000100000000000000000000000000000000000000000000000000000000000002000000000040000000000000000000000000000000000000000020000000000000000000000000000000000000000000000000000000000000000000",
      "type": "0x2",
      "transactionHash": "0xe6bf51dba0547b9e1d746c6ba1b172359a5d94e5325a2c162235ee823000027d",
      "transactionIndex": "0x25",
      "blockHash": "0x7ff0b9091fdc191ffe86aeafff16c0394cf94285274a48b2a9e90c5c66a9df23",
      "blockNumber": "0x18a1378",
      "gasUsed": "0x8e53",
      "effectiveGasPrice": "0xf4608",
      "from": "0x17156c0cf9701b09114cb3619d9f3fd937caa3a8",
      "to": "0x04a7879b5bdc08fd0cf232dcf0ccb1db7ae86abf",
      "contractAddress": null,
      "l1BaseFeeScalar": "0x44d",
      "l1BlobBaseFee": "0x1",
      "l1BlobBaseFeeScalar": "0xa118b",
      "l1Fee": "0x31055f157",
      "l1GasPrice": "0x1bd3d9316",
      "l1GasUsed": "0x640"
    },
    {
      "status": "0x1",
      "cumulativeGasUsed": "0x1a42e49",
      "logs": [
        {
          "address": "0x04a7879b5bdc08fd0cf232dcf0ccb1db7ae86abf",
          "topics": [
            "0xddf252ad1be2c89b69c2b068fc378daa952ba7f163c4a11628f55a4df523b3ef",
            "0x0000000000000000000000000000000000000000000000000000000000000000",
            "0x00000000000000000000000002b085fab53e19aa6ba2ba98da93db598976f95d"
          ],
          "data": "0x00000000000000000000000000000000000000000000003635c9adc5dea00000",
          "blockHash": "0x7ff0b9091fdc191ffe86aeafff16c0394cf94285274a48b2a9e90c5c66a9df23",
          "blockNumber": "0x18a1378",
          "blockTimestamp": "0x682785d0",
          "transactionHash": "0x8dc791c51113989da0795c251acf7aeb93f8a276e59c67b05763c1a68ba16d89",
          "transactionIndex": "0x27",
          "logIndex": "0x18d",
          "removed": false
        }
      ],
      "logsBloom": "0x00000000000000000000000000000000000000000000000000000000000000000000000000000000000000000000000000000000000000000000000000000000000000000000000000000008000000000000000000000000000000000000000000000000020000000010000000000800000000000000200000000010004000000400000000000000000000000000000000000000000000000000000000000000000000000000000000000000000000000000000000000000000000000000000000000002000000000040000000000000000800000000000000000000000020000000000000000000000000000000000000000000000000000000000000000000",
      "type": "0x2",
      "transactionHash": "0x8dc791c51113989da0795c251acf7aeb93f8a276e59c67b05763c1a68ba16d89",
      "transactionIndex": "0x27",
      "blockHash": "0x7ff0b9091fdc191ffe86aeafff16c0394cf94285274a48b2a9e90c5c66a9df23",
      "blockNumber": "0x18a1378",
      "gasUsed": "0xd11f",
      "effectiveGasPrice": "0xf4608",
      "from": "0x17156c0cf9701b09114cb3619d9f3fd937caa3a8",
      "to": "0x04a7879b5bdc08fd0cf232dcf0ccb1db7ae86abf",
      "contractAddress": null,
      "l1BaseFeeScalar": "0x44d",
      "l1BlobBaseFee": "0x1",
      "l1BlobBaseFeeScalar": "0xa118b",
      "l1Fee": "0x31055f157",
      "l1GasPrice": "0x1bd3d9316",
      "l1GasUsed": "0x640"
    },
    {
      "status": "0x1",
      "cumulativeGasUsed": "0x1a4ff68",
      "logs": [
        {
          "address": "0x04a7879b5bdc08fd0cf232dcf0ccb1db7ae86abf",
          "topics": [
            "0xddf252ad1be2c89b69c2b068fc378daa952ba7f163c4a11628f55a4df523b3ef",
            "0x0000000000000000000000000000000000000000000000000000000000000000",
            "0x0000000000000000000000005b73c5498c1e3b4dba84de0f1833c4a029d90519"
          ],
          "data": "0x00000000000000000000000000000000000000000000003635c9adc5dea00000",
          "blockHash": "0x7ff0b9091fdc191ffe86aeafff16c0394cf94285274a48b2a9e90c5c66a9df23",
          "blockNumber": "0x18a1378",
          "blockTimestamp": "0x682785d0",
          "transactionHash": "0x22fc198ed5e536a8754690161a525cad660ba71e646c65ff5e718515c4de1f27",
          "transactionIndex": "0x28",
          "logIndex": "0x18e",
          "removed": false
        }
      ],
      "logsBloom": "0x00000000000000000000000000000000000000000000000000000000000000000000000000000000000000000000000000000000000000000000000000000000000000000000000000000008000000000000000000000000000000000000000000000000020000000010000000000800008000000000000000000010004000000000000000000000000000000000000000000000000000000000000000000000000000000000000000000002000000000000000000000000000000000000000000000002000000000040000000000000000000000000000000000000000020000000000000000000000000000000000000000000000000000000000000000200",
      "type": "0x2",
      "transactionHash": "0x22fc198ed5e536a8754690161a525cad660ba71e646c65ff5e718515c4de1f27",
      "transactionIndex": "0x28",
      "blockHash": "0x7ff0b9091fdc191ffe86aeafff16c0394cf94285274a48b2a9e90c5c66a9df23",
      "blockNumber": "0x18a1378",
      "gasUsed": "0xd11f",
      "effectiveGasPrice": "0xf4608",
      "from": "0x17156c0cf9701b09114cb3619d9f3fd937caa3a8",
      "to": "0x04a7879b5bdc08fd0cf232dcf0ccb1db7ae86abf",
      "contractAddress": null,
      "l1BaseFeeScalar": "0x44d",
      "l1BlobBaseFee": "0x1",
      "l1BlobBaseFeeScalar": "0xa118b",
      "l1Fee": "0x31055f157",
      "l1GasPrice": "0x1bd3d9316",
      "l1GasUsed": "0x640"
    },
    {
      "status": "0x1",
      "cumulativeGasUsed": "0x1a5cfa3",
      "logs": [
        {
          "address": "0x04a7879b5bdc08fd0cf232dcf0ccb1db7ae86abf",
          "topics": [
            "0xddf252ad1be2c89b69c2b068fc378daa952ba7f163c4a11628f55a4df523b3ef",
            "0x0000000000000000000000000000000000000000000000000000000000000000",
            "0x0000000000000000000000000000000000000000000000000000000000000001"
          ],
          "data": "0x00000000000000000000000000000000000000000000003635c9adc5dea00000",
          "blockHash": "0x7ff0b9091fdc191ffe86aeafff16c0394cf94285274a48b2a9e90c5c66a9df23",
          "blockNumber": "0x18a1378",
          "blockTimestamp": "0x682785d0",
          "transactionHash": "0x53dd49b5899a544a823b60f9b86d013ae7d98a001c96805f4d6fa057731dcadb",
          "transactionIndex": "0x29",
          "logIndex": "0x18f",
          "removed": false
        }
      ],
      "logsBloom": "0x00000000000000000000000000000000000000000000000000000000000000000000000000000000000000000000000000000000000000000000000000040000000000000000000000000008000000000000000000040000000000000000000000000000020000000010000000000800000000000000000000000010004000000000000000000000000000000000000000000000000000000000000000000000000000000000000000000000000000000000000000000000000000000000000000000002000000000040000000000000000000000000000000000000000060000000000000000000000000000000000000000000000000000000000000000000",
      "type": "0x2",
      "transactionHash": "0x53dd49b5899a544a823b60f9b86d013ae7d98a001c96805f4d6fa057731dcadb",
      "transactionIndex": "0x29",
      "blockHash": "0x7ff0b9091fdc191ffe86aeafff16c0394cf94285274a48b2a9e90c5c66a9df23",
      "blockNumber": "0x18a1378",
      "gasUsed": "0xd03b",
      "effectiveGasPrice": "0xf4608",
      "from": "0x17156c0cf9701b09114cb3619d9f3fd937caa3a8",
      "to": "0x04a7879b5bdc08fd0cf232dcf0ccb1db7ae86abf",
      "contractAddress": null,
      "l1BaseFeeScalar": "0x44d",
      "l1BlobBaseFee": "0x1",
      "l1BlobBaseFeeScalar": "0xa118b",
      "l1Fee": "0x31055f157",
      "l1GasPrice": "0x1bd3d9316",
      "l1GasUsed": "0x640"
    },
    {
      "status": "0x1",
      "cumulativeGasUsed": "0x1a65df6",
      "logs": [
        {
          "address": "0x8683b74a60f2c6eb8215eb88416b745e86ddbe2d",
          "topics": [
            "0xddf252ad1be2c89b69c2b068fc378daa952ba7f163c4a11628f55a4df523b3ef",
            "0x0000000000000000000000000000000000000000000000000000000000000000",
            "0x00000000000000000000000017156c0cf9701b09114cb3619d9f3fd937caa3a8"
          ],
          "data": "0x00000000000000000000000000000000000000000000003635c9adc5dea00000",
          "blockHash": "0x7ff0b9091fdc191ffe86aeafff16c0394cf94285274a48b2a9e90c5c66a9df23",
          "blockNumber": "0x18a1378",
          "blockTimestamp": "0x682785d0",
          "transactionHash": "0x7bc4201cd1866d6c04097ad23b0483e87027e0bef69179d02a0a9ee4c580fca7",
          "transactionIndex": "0x2a",
          "logIndex": "0x190",
          "removed": false
        }
      ],
      "logsBloom": "0x00000000000000000000000000000000000000000000000000000020000000000000000000000000000000000000000000000000000000000000000000000400000000000000000000000008000000000000000000000000000000000000000000000000020000000000000000000800000000000000000000000010000000000000000000000000000000000000000000000000000000000000000000000000000000000100000000100000000000000000000000000000000000000000000000000002000000000000000000000000000008000000000000000000000020000000000000000000000000000000000008000000000000000000000000000000",
      "type": "0x2",
      "transactionHash": "0x7bc4201cd1866d6c04097ad23b0483e87027e0bef69179d02a0a9ee4c580fca7",
      "transactionIndex": "0x2a",
      "blockHash": "0x7ff0b9091fdc191ffe86aeafff16c0394cf94285274a48b2a9e90c5c66a9df23",
      "blockNumber": "0x18a1378",
      "gasUsed": "0x8e53",
      "effectiveGasPrice": "0xf4608",
      "from": "0x17156c0cf9701b09114cb3619d9f3fd937caa3a8",
      "to": "0x8683b74a60f2c6eb8215eb88416b745e86ddbe2d",
      "contractAddress": null,
      "l1BaseFeeScalar": "0x44d",
      "l1BlobBaseFee": "0x1",
      "l1BlobBaseFeeScalar": "0xa118b",
      "l1Fee": "0x31055f157",
      "l1GasPrice": "0x1bd3d9316",
      "l1GasUsed": "0x640"
    },
    {
      "status": "0x1",
      "cumulativeGasUsed": "0x1a72f15",
      "logs": [
        {
          "address": "0x8683b74a60f2c6eb8215eb88416b745e86ddbe2d",
          "topics": [
            "0xddf252ad1be2c89b69c2b068fc378daa952ba7f163c4a11628f55a4df523b3ef",
            "0x0000000000000000000000000000000000000000000000000000000000000000",
            "0x00000000000000000000000002b085fab53e19aa6ba2ba98da93db598976f95d"
          ],
          "data": "0x00000000000000000000000000000000000000000000003635c9adc5dea00000",
          "blockHash": "0x268cc5b33cdd4eca38b5b8eed579763e8e28fffae36dd60209af81bc7faa5f91",
          "blockNumber": "0x18a1378",
          "blockTimestamp": "0x682785d0",
          "transactionHash": "0xef29333b78d2b142b9fc4c4791625f22ebef91a8565f9bc4e9834a3602dd9bbf",
          "transactionIndex": "0x2b",
          "logIndex": "0x191",
          "removed": false
        }
      ],
      "logsBloom": "0x00000000000000000000000000000000000000000000000000000000000000000000000000000000000000000000000000000000000000000000000000000000000000000000000000000008000000000000000000000000000000000000000000000000020000000000000000000800000000000000200000000010000000000400000000000000000000000000000000000000000000000000000000000000000000000000000000100000000000000000000000000000000000000000000000000002000000000000000000000000000808000000000000000000000020000000000000000000000000000000000008000000000000000000000000000000",
      "type": "0x2",
      "transactionHash": "0xef29333b78d2b142b9fc4c4791625f22ebef91a8565f9bc4e9834a3602dd9bbf",
      "transactionIndex": "0x2b",
      "blockHash": "0x268cc5b33cdd4eca38b5b8eed579763e8e28fffae36dd60209af81bc7faa5f91",
      "blockNumber": "0x18a1378",
      "gasUsed": "0xd11f",
      "effectiveGasPrice": "0xf4608",
      "from": "0x17156c0cf9701b09114cb3619d9f3fd937caa3a8",
      "to": "0x8683b74a60f2c6eb8215eb88416b745e86ddbe2d",
      "contractAddress": null,
      "l1BaseFeeScalar": "0x44d",
      "l1BlobBaseFee": "0x1",
      "l1BlobBaseFeeScalar": "0xa118b",
      "l1Fee": "0x31055f157",
      "l1GasPrice": "0x1bd3d9316",
      "l1GasUsed": "0x640"
    },
    {
      "status": "0x1",
      "cumulativeGasUsed": "0x1bb24d4",
      "logs": [
        {
          "address": "0x8683b74a60f2c6eb8215eb88416b745e86ddbe2d",
          "topics": [
            "0xddf252ad1be2c89b69c2b068fc378daa952ba7f163c4a11628f55a4df523b3ef",
            "0x0000000000000000000000000000000000000000000000000000000000000000",
            "0x0000000000000000000000005b73c5498c1e3b4dba84de0f1833c4a029d90519"
          ],
          "data": "0x00000000000000000000000000000000000000000000003635c9adc5dea00000",
          "blockHash": "0x7ff0b9091fdc191ffe86aeafff16c0394cf94285274a48b2a9e90c5c66a9df23",
          "blockNumber": "0x18a1378",
          "blockTimestamp": "0x682785d0",
          "transactionHash": "0x320588f0649c7eeea53c61d685129b397794ba35d52139f6f7b284803d1c84d3",
          "transactionIndex": "0x35",
          "logIndex": "0x19f",
          "removed": false
        }
      ],
      "logsBloom": "0x00000000000000000000000000000000000000000000000000000000000000000000000000000000000000000000000000000000000000000000000000000000000000000000000000000008000000000000000000000000000000000000000000000000020000000000000000000800008000000000000000000010000000000000000000000000000000000000000000000000000000000000000000000000000000000000000000100002000000000000000000000000000000000000000000000002000000000000000000000000000008000000000000000000000020000000000000000000000000000000000008000000000000000000000000000200",
      "type": "0x2",
      "transactionHash": "0x320588f0649c7eeea53c61d685129b397794ba35d52139f6f7b284803d1c84d3",
      "transactionIndex": "0x35",
      "blockHash": "0x7ff0b9091fdc191ffe86aeafff16c0394cf94285274a48b2a9e90c5c66a9df23",
      "blockNumber": "0x18a1378",
      "gasUsed": "0xd11f",
      "effectiveGasPrice": "0xf4608",
      "from": "0x17156c0cf9701b09114cb3619d9f3fd937caa3a8",
      "to": "0x8683b74a60f2c6eb8215eb88416b745e86ddbe2d",
      "contractAddress": null,
      "l1BaseFeeScalar": "0x44d",
      "l1BlobBaseFee": "0x1",
      "l1BlobBaseFeeScalar": "0xa118b",
      "l1Fee": "0x31055f157",
      "l1GasPrice": "0x1bd3d9316",
      "l1GasUsed": "0x640"
    },
    {
      "status": "0x1",
      "cumulativeGasUsed": "0x1bcaa45",
      "logs": [
        {
          "address": "0x8683b74a60f2c6eb8215eb88416b745e86ddbe2d",
          "topics": [
            "0xddf252ad1be2c89b69c2b068fc378daa952ba7f163c4a11628f55a4df523b3ef",
            "0x0000000000000000000000000000000000000000000000000000000000000000",
            "0x0000000000000000000000000000000000000000000000000000000000000001"
          ],
          "data": "0x00000000000000000000000000000000000000000000003635c9adc5dea00000",
          "blockHash": "0xabc37cdec1a00f9d9f7b6f9ffb8dad519e67f75481ccb15073b3b722d503b916",
          "blockNumber": "0x18a1378",
          "blockTimestamp": "0x682785d0",
          "transactionHash": "0xb5bbdfa388335a7b4900d58e3fdb273089e756cc8f9220372828d1d1b8f001d6",
          "transactionIndex": "0x37",
          "logIndex": "0x1a1",
          "removed": false
        }
      ],
      "logsBloom": "0x00000000000000000000000000000000000000000000000000000000000000000000000000000000000000000000000000000000000000000000000000040000000000000000000000000008000000000000000000040000000000000000000000000000020000000000000000000800000000000000000000000010000000000000000000000000000000000000000000000000000000000000000000000000000000000000000000100000000000000000000000000000000000000000000000000002000000000000000000000000000008000000000000000000000060000000000000000000000000000000000008000000000000000000000000000000",
      "type": "0x2",
      "transactionHash": "0xb5bbdfa388335a7b4900d58e3fdb273089e756cc8f9220372828d1d1b8f001d6",
      "transactionIndex": "0x37",
      "blockHash": "0xabc37cdec1a00f9d9f7b6f9ffb8dad519e67f75481ccb15073b3b722d503b916",
      "blockNumber": "0x18a1378",
      "gasUsed": "0xd03b",
      "effectiveGasPrice": "0xf4608",
      "from": "0x17156c0cf9701b09114cb3619d9f3fd937caa3a8",
      "to": "0x8683b74a60f2c6eb8215eb88416b745e86ddbe2d",
      "contractAddress": null,
      "l1BaseFeeScalar": "0x44d",
      "l1BlobBaseFee": "0x1",
      "l1BlobBaseFeeScalar": "0xa118b",
      "l1Fee": "0x31055f157",
      "l1GasPrice": "0x1bd3d9316",
      "l1GasUsed": "0x640"
    },
    {
      "status": "0x1",
      "cumulativeGasUsed": "0x1e967ba",
      "logs": [],
      "logsBloom": "0x00000000000000000000000000000000000000000000000000000000000000000000000000000000000000000000000000000000000000000000000000000000000000000000000000000000000000000000000000000000000000000000000000000000000000000000000000000000000000000000000000000000000000000000000000000000000000000000000000000000000000000000000000000000000000000000000000000000000000000000000000000000000000000000000000000000000000000000000000000000000000000000000000000000000000000000000000000000000000000000000000000000000000000000000000000000",
      "type": "0x2",
      "transactionHash": "0x5f36a7bf10b9d7e254c38fdd97607fe7f50f1f1b88b44f8e0ea6be3e462ce675",
      "transactionIndex": "0x3a",
      "blockHash": "0x7ff0b9091fdc191ffe86aeafff16c0394cf94285274a48b2a9e90c5c66a9df23",
      "blockNumber": "0x18a1378",
      "gasUsed": "0x28f01e",
      "effectiveGasPrice": "0xf4608",
      "from": "0x17156c0cf9701b09114cb3619d9f3fd937caa3a8",
      "to": "0x4e59b44847b379578588920ca78fbf26c0b4956c",
      "contractAddress": null,
      "l1BaseFeeScalar": "0x44d",
      "l1BlobBaseFee": "0x1",
      "l1BlobBaseFeeScalar": "0xa118b",
      "l1Fee": "0xd95c2ac0fa",
      "l1GasPrice": "0x1bd3d9316",
      "l1GasUsed": "0x1bb66"
    },
    {
      "status": "0x1",
      "cumulativeGasUsed": "0x1ea1e28",
      "logs": [
        {
          "address": "0x04a7879b5bdc08fd0cf232dcf0ccb1db7ae86abf",
          "topics": [
            "0x8c5be1e5ebec7d5bd14f71427d1e84f3dd0314c0f7b2291e5b200ac8c7c3b925",
            "0x00000000000000000000000017156c0cf9701b09114cb3619d9f3fd937caa3a8",
            "0x000000000000000000000000256c1e930d23174cbad9a0c96099fb35bb531040"
          ],
          "data": "0xffffffffffffffffffffffffffffffffffffffffffffffffffffffffffffffff",
          "blockHash": "0x7ff0b9091fdc191ffe86aeafff16c0394cf94285274a48b2a9e90c5c66a9df23",
          "blockNumber": "0x18a1378",
          "blockTimestamp": "0x682785d0",
          "transactionHash": "0xa99e37942e18074fe1d734f8c91a90537ea3a344da78d0b47bf44b1699ace6e0",
          "transactionIndex": "0x3b",
          "logIndex": "0x1a5",
          "removed": false
        }
      ],
      "logsBloom": "0x00000000080000000000000000000000000000000000000000001020000000000000000000000000000000000000000000000000000000000000000000200400000000000000000000000000000000000000000000000000000000000000000000000000000000000010000000000000000000000000000000000000004000000000000000000000000000000000000000000000000000000000000000000000020000000100000000000000000000000000000000000000000000000000000000002000000000000040000000000000000000000000000000000000000000000010000000000000000000000000000000000000000000000000000000000000",
      "type": "0x2",
      "transactionHash": "0xa99e37942e18074fe1d734f8c91a90537ea3a344da78d0b47bf44b1699ace6e0",
      "transactionIndex": "0x3b",
      "blockHash": "0x7ff0b9091fdc191ffe86aeafff16c0394cf94285274a48b2a9e90c5c66a9df23",
      "blockNumber": "0x18a1378",
      "gasUsed": "0xb66e",
      "effectiveGasPrice": "0xf4608",
      "from": "0x17156c0cf9701b09114cb3619d9f3fd937caa3a8",
      "to": "0x04a7879b5bdc08fd0cf232dcf0ccb1db7ae86abf",
      "contractAddress": null,
      "l1BaseFeeScalar": "0x44d",
      "l1BlobBaseFee": "0x1",
      "l1BlobBaseFeeScalar": "0xa118b",
      "l1Fee": "0x31055f157",
      "l1GasPrice": "0x1bd3d9316",
      "l1GasUsed": "0x640"
    },
    {
      "status": "0x1",
      "cumulativeGasUsed": "0x1ead496",
      "logs": [
        {
          "address": "0x8683b74a60f2c6eb8215eb88416b745e86ddbe2d",
          "topics": [
            "0x8c5be1e5ebec7d5bd14f71427d1e84f3dd0314c0f7b2291e5b200ac8c7c3b925",
            "0x00000000000000000000000017156c0cf9701b09114cb3619d9f3fd937caa3a8",
            "0x000000000000000000000000256c1e930d23174cbad9a0c96099fb35bb531040"
          ],
          "data": "0xffffffffffffffffffffffffffffffffffffffffffffffffffffffffffffffff",
          "blockHash": "0x7ff0b9091fdc191ffe86aeafff16c0394cf94285274a48b2a9e90c5c66a9df23",
          "blockNumber": "0x18a1378",
          "blockTimestamp": "0x682785d0",
          "transactionHash": "0x3308789504aab2b642f9530d9dc6f96326f253b3593491196137a703539ba6fd",
          "transactionIndex": "0x3c",
          "logIndex": "0x1a6",
          "removed": false
        }
      ],
      "logsBloom": "0x00000000080000000000000000000000000000000000000000001020000000000000000000000000000000000000000000000000000000000000000000200400000000000000000000000000000000000000000000000000000000000000000000000000000000000000000000000000000000000000000000000000000000000000000000000000000000000000000000000000000000000000000000000000020000000100000000100000000000000000000000000000000000000000000000002000000000000000000000000000000008000000000000000000000000000010000000000000000000000000000008000000000000000000000000000000",
      "type": "0x2",
      "transactionHash": "0x3308789504aab2b642f9530d9dc6f96326f253b3593491196137a703539ba6fd",
      "transactionIndex": "0x3c",
      "blockHash": "0x7ff0b9091fdc191ffe86aeafff16c0394cf94285274a48b2a9e90c5c66a9df23",
      "blockNumber": "0x18a1378",
      "gasUsed": "0xb66e",
      "effectiveGasPrice": "0xf4608",
      "from": "0x17156c0cf9701b09114cb3619d9f3fd937caa3a8",
      "to": "0x8683b74a60f2c6eb8215eb88416b745e86ddbe2d",
      "contractAddress": null,
      "l1BaseFeeScalar": "0x44d",
      "l1BlobBaseFee": "0x1",
      "l1BlobBaseFeeScalar": "0xa118b",
      "l1Fee": "0x31055f157",
      "l1GasPrice": "0x1bd3d9316",
      "l1GasUsed": "0x640"
    },
    {
      "status": "0x1",
      "cumulativeGasUsed": "0x1eb8b04",
      "logs": [
        {
          "address": "0x04a7879b5bdc08fd0cf232dcf0ccb1db7ae86abf",
          "topics": [
            "0x8c5be1e5ebec7d5bd14f71427d1e84f3dd0314c0f7b2291e5b200ac8c7c3b925",
            "0x00000000000000000000000017156c0cf9701b09114cb3619d9f3fd937caa3a8",
            "0x000000000000000000000000492e6456d9528771018deb9e87ef7750ef184104"
          ],
          "data": "0xffffffffffffffffffffffffffffffffffffffffffffffffffffffffffffffff",
          "blockHash": "0x7ff0b9091fdc191ffe86aeafff16c0394cf94285274a48b2a9e90c5c66a9df23",
          "blockNumber": "0x18a1378",
          "blockTimestamp": "0x682785d0",
          "transactionHash": "0xafa13cdb46ab763b071f258ed0dbc8cbc6b972e0dccc00b89af5ded58ad2547d",
          "transactionIndex": "0x3d",
          "logIndex": "0x1a7",
          "removed": false
        }
      ],
      "logsBloom": "0x00000000000400000000000000000000000000000000000000000020000000000000000000000000000000000000000000000000000000000000000000200400000000000000000000000000000000000000000000000000000000000000000000000000000000000012000000000000000000000000000000000000004000000000000000000000000000000000000000000000000000000000000000000000020000000100000000000000000000000000000000000000000000000000000000000000000000000040000000000000000000000000000000000000000000000010020000000000000000000000000000000000000000000000000000000000",
      "type": "0x2",
      "transactionHash": "0xafa13cdb46ab763b071f258ed0dbc8cbc6b972e0dccc00b89af5ded58ad2547d",
      "transactionIndex": "0x3d",
      "blockHash": "0x7ff0b9091fdc191ffe86aeafff16c0394cf94285274a48b2a9e90c5c66a9df23",
      "blockNumber": "0x18a1378",
      "gasUsed": "0xb66e",
      "effectiveGasPrice": "0xf4608",
      "from": "0x17156c0cf9701b09114cb3619d9f3fd937caa3a8",
      "to": "0x04a7879b5bdc08fd0cf232dcf0ccb1db7ae86abf",
      "contractAddress": null,
      "l1BaseFeeScalar": "0x44d",
      "l1BlobBaseFee": "0x1",
      "l1BlobBaseFeeScalar": "0xa118b",
      "l1Fee": "0x31055f157",
      "l1GasPrice": "0x1bd3d9316",
      "l1GasUsed": "0x640"
    },
    {
      "status": "0x1",
      "cumulativeGasUsed": "0x1ec4172",
      "logs": [
        {
          "address": "0x8683b74a60f2c6eb8215eb88416b745e86ddbe2d",
          "topics": [
            "0x8c5be1e5ebec7d5bd14f71427d1e84f3dd0314c0f7b2291e5b200ac8c7c3b925",
            "0x00000000000000000000000017156c0cf9701b09114cb3619d9f3fd937caa3a8",
            "0x000000000000000000000000492e6456d9528771018deb9e87ef7750ef184104"
          ],
          "data": "0xffffffffffffffffffffffffffffffffffffffffffffffffffffffffffffffff",
          "blockHash": "0x7ff0b9091fdc191ffe86aeafff16c0394cf94285274a48b2a9e90c5c66a9df23",
          "blockNumber": "0x18a1378",
          "blockTimestamp": "0x682785d0",
          "transactionHash": "0xcb94d9eb4de11cbf24d2aaa8b391077f4680a3eb6f3e747accb5b6bc2aa17b68",
          "transactionIndex": "0x3e",
          "logIndex": "0x1a8",
          "removed": false
        }
      ],
      "logsBloom": "0x00000000000400000000000000000000000000000000000000000020000000000000000000000000000000000000000000000000000000000000000000200400000000000000000000000000000000000000000000000000000000000000000000000000000000000002000000000000000000000000000000000000000000000000000000000000000000000000000000000000000000000000000000000000020000000100000000100000000000000000000000000000000000000000000000000000000000000000000000000000000008000000000000000000000000000010020000000000000000000000000008000000000000000000000000000000",
      "type": "0x2",
      "transactionHash": "0xcb94d9eb4de11cbf24d2aaa8b391077f4680a3eb6f3e747accb5b6bc2aa17b68",
      "transactionIndex": "0x3e",
      "blockHash": "0x7ff0b9091fdc191ffe86aeafff16c0394cf94285274a48b2a9e90c5c66a9df23",
      "blockNumber": "0x18a1378",
      "gasUsed": "0xb66e",
      "effectiveGasPrice": "0xf4608",
      "from": "0x17156c0cf9701b09114cb3619d9f3fd937caa3a8",
      "to": "0x8683b74a60f2c6eb8215eb88416b745e86ddbe2d",
      "contractAddress": null,
      "l1BaseFeeScalar": "0x44d",
      "l1BlobBaseFee": "0x1",
      "l1BlobBaseFeeScalar": "0xa118b",
      "l1Fee": "0x31055f157",
      "l1GasPrice": "0x1bd3d9316",
      "l1GasUsed": "0x640"
    },
    {
      "status": "0x1",
      "cumulativeGasUsed": "0x1ecf7e0",
      "logs": [
        {
          "address": "0x04a7879b5bdc08fd0cf232dcf0ccb1db7ae86abf",
          "topics": [
            "0x8c5be1e5ebec7d5bd14f71427d1e84f3dd0314c0f7b2291e5b200ac8c7c3b925",
            "0x00000000000000000000000017156c0cf9701b09114cb3619d9f3fd937caa3a8",
            "0x0000000000000000000000004b2c77d209d3405f41a037ec6c77f7f5b8e2ca80"
          ],
          "data": "0xffffffffffffffffffffffffffffffffffffffffffffffffffffffffffffffff",
          "blockHash": "0x7ff0b9091fdc191ffe86aeafff16c0394cf94285274a48b2a9e90c5c66a9df23",
          "blockNumber": "0x18a1378",
          "blockTimestamp": "0x682785d0",
          "transactionHash": "0xf0694cdf4d120d33f9bbe20f0ab20777300f96e074903e9d3699f4fd518d2b80",
          "transactionIndex": "0x3f",
          "logIndex": "0x1a9",
          "removed": false
        }
      ],
      "logsBloom": "0x00000000000000010000000000000000000000000000000000000020000000000000000000000000000000000000000000000000000000000008000010200400000000000000000000000000000000000000000000000000000000000000000000000000000000000010000000000000000000000000000000000000004000000000000000000000000000000000000000000000000000000000000000000000020000000100000000000000000000000000000000000000000000000000000000000000000000000040000000000000000000000000000000000000000000000010000000000000000000000000000000000000000000000000000000000000",
      "type": "0x2",
      "transactionHash": "0xf0694cdf4d120d33f9bbe20f0ab20777300f96e074903e9d3699f4fd518d2b80",
      "transactionIndex": "0x3f",
      "blockHash": "0x7ff0b9091fdc191ffe86aeafff16c0394cf94285274a48b2a9e90c5c66a9df23",
      "blockNumber": "0x18a1378",
      "gasUsed": "0xb66e",
      "effectiveGasPrice": "0xf4608",
      "from": "0x17156c0cf9701b09114cb3619d9f3fd937caa3a8",
      "to": "0x04a7879b5bdc08fd0cf232dcf0ccb1db7ae86abf",
      "contractAddress": null,
      "l1BaseFeeScalar": "0x44d",
      "l1BlobBaseFee": "0x1",
      "l1BlobBaseFeeScalar": "0xa118b",
      "l1Fee": "0x31055f157",
      "l1GasPrice": "0x1bd3d9316",
      "l1GasUsed": "0x640"
    },
    {
      "status": "0x1",
      "cumulativeGasUsed": "0x3698e2",
      "logs": [
        {
          "address": "0x8683b74a60f2c6eb8215eb88416b745e86ddbe2d",
          "topics": [
            "0x8c5be1e5ebec7d5bd14f71427d1e84f3dd0314c0f7b2291e5b200ac8c7c3b925",
            "0x00000000000000000000000017156c0cf9701b09114cb3619d9f3fd937caa3a8",
            "0x0000000000000000000000004b2c77d209d3405f41a037ec6c77f7f5b8e2ca80"
          ],
          "data": "0xffffffffffffffffffffffffffffffffffffffffffffffffffffffffffffffff",
          "blockHash": "0x519e4ae03d57261ca1e75603000fd8380eccc9dff3b4fc744800b28ee99a982b",
          "blockNumber": "0x18a1379",
          "blockTimestamp": "0x682785d2",
          "transactionHash": "0xcd07cae02b04b08f5876e523c195f02b6eae4676ae6b5b710d1d3191e47842dd",
          "transactionIndex": "0x14",
          "logIndex": "0x4b",
          "removed": false
        }
      ],
      "logsBloom": "0x00000000000000010000000000000000000000000000000000000020000000000000000000000000000000000000000000000000000000000008000010200400000000000000000000000000000000000000000000000000000000000000000000000000000000000000000000000000000000000000000000000000000000000000000000000000000000000000000000000000000000000000000000000000020000000100000000100000000000000000000000000000000000000000000000000000000000000000000000000000000008000000000000000000000000000010000000000000000000000000000008000000000000000000000000000000",
      "type": "0x2",
      "transactionHash": "0xcd07cae02b04b08f5876e523c195f02b6eae4676ae6b5b710d1d3191e47842dd",
      "transactionIndex": "0x14",
      "blockHash": "0x519e4ae03d57261ca1e75603000fd8380eccc9dff3b4fc744800b28ee99a982b",
      "blockNumber": "0x18a1379",
      "gasUsed": "0xb66e",
      "effectiveGasPrice": "0xf4608",
      "from": "0x17156c0cf9701b09114cb3619d9f3fd937caa3a8",
      "to": "0x8683b74a60f2c6eb8215eb88416b745e86ddbe2d",
      "contractAddress": null,
      "l1BaseFeeScalar": "0x44d",
      "l1BlobBaseFee": "0x1",
      "l1BlobBaseFeeScalar": "0xa118b",
      "l1Fee": "0x31055f157",
      "l1GasPrice": "0x1bd3d9316",
      "l1GasUsed": "0x640"
    },
    {
      "status": "0x1",
      "cumulativeGasUsed": "0x374f50",
      "logs": [
        {
          "address": "0x04a7879b5bdc08fd0cf232dcf0ccb1db7ae86abf",
          "topics": [
            "0x8c5be1e5ebec7d5bd14f71427d1e84f3dd0314c0f7b2291e5b200ac8c7c3b925",
            "0x00000000000000000000000017156c0cf9701b09114cb3619d9f3fd937caa3a8",
            "0x00000000000000000000000005e73354cfdd6745c338b50bcfdfa3aa6fa03408"
          ],
          "data": "0xffffffffffffffffffffffffffffffffffffffffffffffffffffffffffffffff",
          "blockHash": "0x7680d3a1fdfc9dc72b87d9c2d7d8ac265c498c5b8946a0ffb9aa146c1ee83d02",
          "blockNumber": "0x18a1379",
          "blockTimestamp": "0x682785d2",
          "transactionHash": "0xea76513d5e8e8c3d57ba3fdf74cf4e5e9e0ddd63542ecbb9f5a7b020be27ace1",
          "transactionIndex": "0x15",
          "logIndex": "0x4c",
          "removed": false
        }
      ],
      "logsBloom": "0x00000000000000000000000000000000000000000000000000000020000000000000000000000000000000000000000000000000000000000000000000200400000000000010000000000000000000000000000000100000000000000000000000000000000000000010000000000000000000000000000000000000004000000000000000000000000000000000000000000000000000000000000000000000020000000100000000000000000000000000000000000000000000000000000000000000000000000040000000000000000000000000000000000000000000000010000000000000000000000800000000000000000000000000000000000000",
      "type": "0x2",
      "transactionHash": "0xea76513d5e8e8c3d57ba3fdf74cf4e5e9e0ddd63542ecbb9f5a7b020be27ace1",
      "transactionIndex": "0x15",
      "blockHash": "0x7680d3a1fdfc9dc72b87d9c2d7d8ac265c498c5b8946a0ffb9aa146c1ee83d02",
      "blockNumber": "0x18a1379",
      "gasUsed": "0xb66e",
      "effectiveGasPrice": "0xf4608",
      "from": "0x17156c0cf9701b09114cb3619d9f3fd937caa3a8",
      "to": "0x04a7879b5bdc08fd0cf232dcf0ccb1db7ae86abf",
      "contractAddress": null,
      "l1BaseFeeScalar": "0x44d",
      "l1BlobBaseFee": "0x1",
      "l1BlobBaseFeeScalar": "0xa118b",
      "l1Fee": "0x31055f157",
      "l1GasPrice": "0x1bd3d9316",
      "l1GasUsed": "0x640"
    },
    {
      "status": "0x1",
      "cumulativeGasUsed": "0x3805be",
      "logs": [
        {
          "address": "0x8683b74a60f2c6eb8215eb88416b745e86ddbe2d",
          "topics": [
            "0x8c5be1e5ebec7d5bd14f71427d1e84f3dd0314c0f7b2291e5b200ac8c7c3b925",
            "0x00000000000000000000000017156c0cf9701b09114cb3619d9f3fd937caa3a8",
            "0x00000000000000000000000005e73354cfdd6745c338b50bcfdfa3aa6fa03408"
          ],
          "data": "0xffffffffffffffffffffffffffffffffffffffffffffffffffffffffffffffff",
          "blockHash": "0x7680d3a1fdfc9dc72b87d9c2d7d8ac265c498c5b8946a0ffb9aa146c1ee83d02",
          "blockNumber": "0x18a1379",
          "blockTimestamp": "0x682785d2",
          "transactionHash": "0x3fb410f181adef64c0b06b5cf9ed4f17be558d11e14e1ada1ff399a6bfcdec39",
          "transactionIndex": "0x16",
          "logIndex": "0x4d",
          "removed": false
        }
      ],
      "logsBloom": "0x00000000000000000000000000000000000000000000000000000020000000000000000000000000000000000000000000000000000000000000000000200400000000000010000000000000000000000000000000100000000000000000000000000000000000000000000000000000000000000000000000000000000000000000000000000000000000000000000000000000000000000000000000000000020000000100000000100000000000000000000000000000000000000000000000000000000000000000000000000000000008000000000000000000000000000010000000000000000000000800000008000000000000000000000000000000",
      "type": "0x2",
      "transactionHash": "0x3fb410f181adef64c0b06b5cf9ed4f17be558d11e14e1ada1ff399a6bfcdec39",
      "transactionIndex": "0x16",
      "blockHash": "0x7680d3a1fdfc9dc72b87d9c2d7d8ac265c498c5b8946a0ffb9aa146c1ee83d02",
      "blockNumber": "0x18a1379",
      "gasUsed": "0xb66e",
      "effectiveGasPrice": "0xf4608",
      "from": "0x17156c0cf9701b09114cb3619d9f3fd937caa3a8",
      "to": "0x8683b74a60f2c6eb8215eb88416b745e86ddbe2d",
      "contractAddress": null,
      "l1BaseFeeScalar": "0x44d",
      "l1BlobBaseFee": "0x1",
      "l1BlobBaseFeeScalar": "0xa118b",
      "l1Fee": "0x31055f157",
      "l1GasPrice": "0x1bd3d9316",
      "l1GasUsed": "0x640"
    },
    {
      "status": "0x1",
      "cumulativeGasUsed": "0x38bc2c",
      "logs": [
        {
          "address": "0x04a7879b5bdc08fd0cf232dcf0ccb1db7ae86abf",
          "topics": [
            "0x8c5be1e5ebec7d5bd14f71427d1e84f3dd0314c0f7b2291e5b200ac8c7c3b925",
            "0x00000000000000000000000017156c0cf9701b09114cb3619d9f3fd937caa3a8",
            "0x00000000000000000000000037429cd17cb1454c34e7f50b09725202fd533039"
          ],
          "data": "0xffffffffffffffffffffffffffffffffffffffffffffffffffffffffffffffff",
          "blockHash": "0x7680d3a1fdfc9dc72b87d9c2d7d8ac265c498c5b8946a0ffb9aa146c1ee83d02",
          "blockNumber": "0x18a1379",
          "blockTimestamp": "0x682785d2",
          "transactionHash": "0xc0c513a35d006a412a3c8381808d9868a242404c440f7fa3ef2903dcf7632be0",
          "transactionIndex": "0x17",
          "logIndex": "0x4e",
          "removed": false
        }
      ],
      "logsBloom": "0x00000000000000000000000000000000000000000000000000000020000000000000000000000000000000000000000000000000000000000000000000200400000000000000000000000000000000000000000000000000800000000000000000000000000000000010000000000000000000000000000000000000004000000000000000000000000000000000000000000000000000000000000000000000020000000100000000000000000000000000000000000000000000000000000000000000000000000040000000000000000000001000000000000000000000000210000000000000000000000000000000000000000000000000000000000000",
      "type": "0x2",
      "transactionHash": "0xc0c513a35d006a412a3c8381808d9868a242404c440f7fa3ef2903dcf7632be0",
      "transactionIndex": "0x17",
      "blockHash": "0x7680d3a1fdfc9dc72b87d9c2d7d8ac265c498c5b8946a0ffb9aa146c1ee83d02",
      "blockNumber": "0x18a1379",
      "gasUsed": "0xb66e",
      "effectiveGasPrice": "0xf4608",
      "from": "0x17156c0cf9701b09114cb3619d9f3fd937caa3a8",
      "to": "0x04a7879b5bdc08fd0cf232dcf0ccb1db7ae86abf",
      "contractAddress": null,
      "l1BaseFeeScalar": "0x44d",
      "l1BlobBaseFee": "0x1",
      "l1BlobBaseFeeScalar": "0xa118b",
      "l1Fee": "0x31055f157",
      "l1GasPrice": "0x1bd3d9316",
      "l1GasUsed": "0x640"
    },
    {
      "status": "0x1",
      "cumulativeGasUsed": "0x494628",
      "logs": [
        {
          "address": "0x8683b74a60f2c6eb8215eb88416b745e86ddbe2d",
          "topics": [
            "0x8c5be1e5ebec7d5bd14f71427d1e84f3dd0314c0f7b2291e5b200ac8c7c3b925",
            "0x00000000000000000000000017156c0cf9701b09114cb3619d9f3fd937caa3a8",
            "0x00000000000000000000000037429cd17cb1454c34e7f50b09725202fd533039"
          ],
          "data": "0xffffffffffffffffffffffffffffffffffffffffffffffffffffffffffffffff",
          "blockHash": "0xe9eb982d86a1ee8cb4278871df2fe6793546670b58f80cef9be1e79f2f7f4b90",
          "blockNumber": "0x18a1379",
          "blockTimestamp": "0x682785d2",
          "transactionHash": "0x781fda48d2e9128d485081f3ae6c6066a2f72f13c93e24917d94df4d9def3b77",
          "transactionIndex": "0x1d",
          "logIndex": "0x69",
          "removed": false
        }
      ],
      "logsBloom": "0x00000000000000000000000000000000000000000000000000000020000000000000000000000000000000000000000000000000000000000000000000200400000000000000000000000000000000000000000000000000800000000000000000000000000000000000000000000000000000000000000000000000000000000000000000000000000000000000000000000000000000000000000000000000020000000100000000100000000000000000000000000000000000000000000000000000000000000000000000000000000008001000000000000000000000000210000000000000000000000000000008000000000000000000000000000000",
      "type": "0x2",
      "transactionHash": "0x781fda48d2e9128d485081f3ae6c6066a2f72f13c93e24917d94df4d9def3b77",
      "transactionIndex": "0x1d",
      "blockHash": "0xe9eb982d86a1ee8cb4278871df2fe6793546670b58f80cef9be1e79f2f7f4b90",
      "blockNumber": "0x18a1379",
      "gasUsed": "0xb66e",
      "effectiveGasPrice": "0xf4608",
      "from": "0x17156c0cf9701b09114cb3619d9f3fd937caa3a8",
      "to": "0x8683b74a60f2c6eb8215eb88416b745e86ddbe2d",
      "contractAddress": null,
      "l1BaseFeeScalar": "0x44d",
      "l1BlobBaseFee": "0x1",
      "l1BlobBaseFeeScalar": "0xa118b",
      "l1Fee": "0x31055f157",
      "l1GasPrice": "0x1bd3d9316",
      "l1GasUsed": "0x640"
    },
    {
      "status": "0x1",
      "cumulativeGasUsed": "0x4f8033",
      "logs": [
        {
          "address": "0x05e73354cfdd6745c338b50bcfdfa3aa6fa03408",
          "topics": [
            "0xdd466e674ea557f56295e2d0218a125ea4b4f0f6f3307b95f85e6110838d6438",
            "0xb9c8ff3d0be218cccc246230db26667d90826a08da1b2b795bb3597c13c2e0b4",
            "0x00000000000000000000000004a7879b5bdc08fd0cf232dcf0ccb1db7ae86abf",
            "0x0000000000000000000000008683b74a60f2c6eb8215eb88416b745e86ddbe2d"
          ],
          "data": "0x0000000000000000000000000000000000000000000000000000000000800000000000000000000000000000000000000000000000000000000000000000003c000000000000000000000000256c1e930d23174cbad9a0c96099fb35bb5310400000000000000000000000000000000000000037ad7a0d85e4680000000000000000000000000000000000000000000000000000000000000000000000013a0b",
          "blockHash": "0xe9eb982d86a1ee8cb4278871df2fe6793546670b58f80cef9be1e79f2f7f4b90",
          "blockNumber": "0x18a1379",
          "blockTimestamp": "0x682785d2",
          "transactionHash": "0xf09699a2cc31f5b97e19d36e66041060f41b56a02d3c376f5a7e6b51b217d385",
          "transactionIndex": "0x20",
          "logIndex": "0x73",
          "removed": false
        }
      ],
      "logsBloom": "0x00000000000000200000000000000000000000000000000000000000001000000000000101008000000000000000000000000000000000000000000000000000000000000000000000000000000000000000000000000000800000000000000000000000000000000000000000000000000000000000000000000000000000000000000004000008000000000000000000000001000000000001000000200000000002000000000000000400000000000000000000000000000000000000000000000000001000000000000000000000000000000000000000000000000000000000000000000000000000000000000000001000000000000000000000000000",
      "type": "0x2",
      "transactionHash": "0xf09699a2cc31f5b97e19d36e66041060f41b56a02d3c376f5a7e6b51b217d385",
      "transactionIndex": "0x20",
      "blockHash": "0xe9eb982d86a1ee8cb4278871df2fe6793546670b58f80cef9be1e79f2f7f4b90",
      "blockNumber": "0x18a1379",
      "gasUsed": "0x134d6",
      "effectiveGasPrice": "0xf4608",
      "from": "0x17156c0cf9701b09114cb3619d9f3fd937caa3a8",
      "to": "0x05e73354cfdd6745c338b50bcfdfa3aa6fa03408",
      "contractAddress": null,
      "l1BaseFeeScalar": "0x44d",
      "l1BlobBaseFee": "0x1",
      "l1BlobBaseFeeScalar": "0xa118b",
      "l1Fee": "0x47cc3c6e9",
      "l1GasPrice": "0x1bd3d9316",
      "l1GasUsed": "0x927"
    },
    {
      "status": "0x1",
      "cumulativeGasUsed": "0x531e73",
      "logs": [
        {
          "address": "0x05e73354cfdd6745c338b50bcfdfa3aa6fa03408",
          "topics": [
            "0xf208f4912782fd25c7f114ca3723a2d5dd6f3bcc3ac8db5af63baa85f711d5ec",
            "0xb9c8ff3d0be218cccc246230db26667d90826a08da1b2b795bb3597c13c2e0b4",
            "0x00000000000000000000000037429cd17cb1454c34e7f50b09725202fd533039"
          ],
          "data": "0xffffffffffffffffffffffffffffffffffffffffffffffffffffffffffffe89000000000000000000000000000000000000000000000000000000000000017700000000000000000000000000000000000000000000000056bc75e2d631000000000000000000000000000000000000000000000000000000000000000000000",
          "blockHash": "0xe9eb982d86a1ee8cb4278871df2fe6793546670b58f80cef9be1e79f2f7f4b90",
          "blockNumber": "0x18a1379",
          "blockTimestamp": "0x682785d2",
          "transactionHash": "0x821b3405c822b6071d764dab57f00ee6edecc554023ff2d00640300aeb9174d7",
          "transactionIndex": "0x21",
          "logIndex": "0x74",
          "removed": false
        },
        {
          "address": "0x8683b74a60f2c6eb8215eb88416b745e86ddbe2d",
          "topics": [
            "0xddf252ad1be2c89b69c2b068fc378daa952ba7f163c4a11628f55a4df523b3ef",
            "0x00000000000000000000000017156c0cf9701b09114cb3619d9f3fd937caa3a8",
            "0x00000000000000000000000005e73354cfdd6745c338b50bcfdfa3aa6fa03408"
          ],
          "data": "0x0000000000000000000000000000000000000000000000034d2b8ab38b51cba9",
          "blockHash": "0xe9eb982d86a1ee8cb4278871df2fe6793546670b58f80cef9be1e79f2f7f4b90",
          "blockNumber": "0x18a1379",
          "blockTimestamp": "0x682785d2",
          "transactionHash": "0x821b3405c822b6071d764dab57f00ee6edecc554023ff2d00640300aeb9174d7",
          "transactionIndex": "0x21",
          "logIndex": "0x75",
          "removed": false
        }
      ],
      "logsBloom": "0x0000000000000020000000000000000000000000000000000000002000000000000000010100000000000000000000000000000000000000000000000000040000000000001000000000000800000000000000000010000080000000000000000000000000000000000000000000000000000000000000000000001000000000000000000500000000000000000000000000000000000000000100000000000000000400010000000010000000000000000000000000000000000000000000000000000200100000000000000000000000000800100000000000000000000000020000000000000000000000080000000c000000000000000000000000000000",
      "type": "0x2",
      "transactionHash": "0x821b3405c822b6071d764dab57f00ee6edecc554023ff2d00640300aeb9174d7",
      "transactionIndex": "0x21",
      "blockHash": "0xe9eb982d86a1ee8cb4278871df2fe6793546670b58f80cef9be1e79f2f7f4b90",
      "blockNumber": "0x18a1379",
      "gasUsed": "0x39e40",
      "effectiveGasPrice": "0xf4608",
      "from": "0x17156c0cf9701b09114cb3619d9f3fd937caa3a8",
      "to": "0x37429cd17cb1454c34e7f50b09725202fd533039",
      "contractAddress": null,
      "l1BaseFeeScalar": "0x44d",
      "l1BlobBaseFee": "0x1",
      "l1BlobBaseFeeScalar": "0xa118b",
      "l1Fee": "0x51a3a5dab",
      "l1GasPrice": "0x1bd3d9316",
      "l1GasUsed": "0xa68"
    },
    {
      "status": "0x1",
      "cumulativeGasUsed": "0x537d16",
      "logs": [],
      "logsBloom": "0x00000000000000000000000000000000000000000000000000000000000000000000000000000000000000000000000000000000000000000000000000000000000000000000000000000000000000000000000000000000000000000000000000000000000000000000000000000000000000000000000000000000000000000000000000000000000000000000000000000000000000000000000000000000000000000000000000000000000000000000000000000000000000000000000000000000000000000000000000000000000000000000000000000000000000000000000000000000000000000000000000000000000000000000000000000000",
      "type": "0x2",
      "transactionHash": "0x51528d65daace2929ea3cd92858c5d30b10465914e92d6d2a0721250ea97a527",
      "transactionIndex": "0x22",
      "blockHash": "0xe9eb982d86a1ee8cb4278871df2fe6793546670b58f80cef9be1e79f2f7f4b90",
      "blockNumber": "0x18a1379",
      "gasUsed": "0x5ea3",
      "effectiveGasPrice": "0xf4608",
      "from": "0x17156c0cf9701b09114cb3619d9f3fd937caa3a8",
      "to": "0x04a7879b5bdc08fd0cf232dcf0ccb1db7ae86abf",
      "contractAddress": null,
      "l1BaseFeeScalar": "0x44d",
      "l1BlobBaseFee": "0x1",
      "l1BlobBaseFeeScalar": "0xa118b",
      "l1Fee": "0x31055f157",
      "l1GasPrice": "0x1bd3d9316",
      "l1GasUsed": "0x640"
    },
    {
      "status": "0x1",
      "cumulativeGasUsed": "0x53dbb9",
      "logs": [],
      "logsBloom": "0x00000000000000000000000000000000000000000000000000000000000000000000000000000000000000000000000000000000000000000000000000000000000000000000000000000000000000000000000000000000000000000000000000000000000000000000000000000000000000000000000000000000000000000000000000000000000000000000000000000000000000000000000000000000000000000000000000000000000000000000000000000000000000000000000000000000000000000000000000000000000000000000000000000000000000000000000000000000000000000000000000000000000000000000000000000000",
      "type": "0x2",
      "transactionHash": "0x1107b2cdcb443c1a6e59087f598b31f93d6105559645777943c2c779deb5db45",
      "transactionIndex": "0x23",
      "blockHash": "0xe9eb982d86a1ee8cb4278871df2fe6793546670b58f80cef9be1e79f2f7f4b90",
      "blockNumber": "0x18a1379",
      "gasUsed": "0x5ea3",
      "effectiveGasPrice": "0xf4608",
      "from": "0x17156c0cf9701b09114cb3619d9f3fd937caa3a8",
      "to": "0x8683b74a60f2c6eb8215eb88416b745e86ddbe2d",
      "contractAddress": null,
      "l1BaseFeeScalar": "0x44d",
      "l1BlobBaseFee": "0x1",
      "l1BlobBaseFeeScalar": "0xa118b",
      "l1Fee": "0x31055f157",
      "l1GasPrice": "0x1bd3d9316",
      "l1GasUsed": "0x640"
    }
  ],
  "libraries": [],
  "pending": [],
  "returns": {},
  "timestamp": 1747420624,
  "chain": 84532,
  "commit": "6ed48d7"
}